:020000040800F2
:1000000000000120C5020008CB020008CF02000852
:1000100041030008450300088D03000800000000AC
:10002000000000000000000000000000D5030008F0
:10003000D903000800000000DD03000805150008D2
:10004000F1030008F1030008F1030008F1030008C0
:10005000F1030008F10300083510000855100008EE
:10006000F1030008F1030008F1030008F1030008A0
:10007000F1030008F1030008F1030008F103000890
:10008000F1030008F1030008F1030008000000007C
:10009000000000000000000000000000F103000864
:1000A000F1030008F1030008F1030008F103000860
:1000B000F1030008F1030008F1030008F103000850
:1000C000F1030008F1030008F1030008F103000840
:1000D000F1030008F1030008F1030008000000002C
:1000E000F1030008F1030008F1030008000000001C
:1000F000000000000000000000000000F103000804
:1001000000000000F1030008F1030008F1030008FB
:1001100000000000000000000000000000000000DF
:10012000F1030008F1030008F1030008F1030008DF
:10013000F1030008000000000000000000000000C3
:10014000000000000000000000000000F1030008B3
:10015000F1030008F1030008F1030008F1030008AF
:10016000F1030008F1030008000000000000000097
:10017000000000000000000000000000000000007F
:1001800000000000F1030008000000000000000073
:10019000F103000800B583B000F046FE384B394A41
:1001A0001360394A1360394900E02146384B9942BF
:1001B0000BD20A684B6801F10C0488689842F4D9A4
:1001C0001168196004330432F8E72E4B1A68314B7A
:1001D0009A4200D0FEE72C4B1A682F4B9A42F9D175
:1001E000274B2E4A13602E4A13602E4B05E0002049
:1001F000106004329342FAD80B462B4A934204D241
:10020000194651F8082B5B68F4E7244B1B6813B9B7
:10021000234B1B6803B1FEE701F094FA694601A87D
:1002200000F094FD214C224BE41AA4100025AC42AE
:1002300014DC204C204BE41AA4100025AC4213DC43
:100240000099019801F086FA05461C4C1C4BE41AF3
:10025000A410002C0EDC284600F04AFD144B53F885
:10026000253098470135E2E7134B53F8253098477E
:100270000135E3E7013C124B53F824309847E8E797
:10028000BABADECA0000002074000020F40300089F
:100290000C04000878563412325476987800002006
:1002A000580100200C0400081C0400081C0400086D
:1002B0001C0400081C0400081C0400081C0400089E
:1002C0001C04000808B5FFF765FF00BEFEE71EF03E
:1002D000040F0CBFEFF30880EFF309807146414A29
:1002E00010472DE9F04182B004468846124B5E6B00
:1002F0009F6B9D6A1B6B13F0020F03D00E4BDB6AE2
:10030000002B0CDB0D4800F033FDCDF800803B46A0
:1003100032462946204600F093FD00BEFEE74BF62C
:10032000AB6100F007FE0028ECD0034B4FF0004219
:10033000DA6202B0BDE8F08100ED00E0682200085A
:1003400000BEFEE71EF0040F0CBFEFF30880EFF3D2
:1003500009807146244A10472DE9F04182B00446D5
:100360008846084B5E6B9F6B9D6A074800F000FD56
:10037000CDF800803B4632462946204600F060FD1D
:1003800000BEFEE700ED00E0782200081EF0040F3A
:100390000CBFEFF30880EFF309807146134A104752
:1003A0002DE9F04182B004468846084B5E6B9F6B96
:1003B0009D6A074800F0DCFCCDF800803B463246E1
:1003C0002946204600F03CFD00BEFEE700ED00E0BF
:1003D0008422000800BEFEE700BEFEE700BEFEE786
:1003E00070470000E302000859030008A103000859
:0403F00000BEFEE766
:1003F400D81201080000002078000020D81201085B
:100404000000001000000010780000205C010020B3
:080414000000001000000010C0
:1004200010B50446074B1868074BA3FB0030800942
:1004300000F090F8002221464FF0FF3000F044F821
:10044000002010BD0C000020D34D621008B50B4BEE
:100450001A6842F400721A601A6842F480621A60E4
:100460001A6842F480721A60032000F00FF80F201F
:10047000FFF7D6FF01F08EF9002008BD003C0240D6
:10048000014B1868704700BF4C01002010B50446AE
:10049000C31E042B0FD80A4AD36823F4E0631B045D
:1004A0001B0C240204F4E064234343F0BF6343F4D1
:1004B0000033D36010BDA421024800F04FFCEAE7EE
:1004C00000ED00E09820000870B505460C46164681
:1004D0000F2A25D80F2C28D81B4BDB68C3F3022327
:1004E000C3F10702042A28BF0422191D062921D9B5
:1004F000033B4FF0FF3101FA02F224EA02049C4070
:1005000001FA03F326EA03063443002D14DB240129
:10051000E4B205F1604505F5614585F8004370BD1D
:10052000BC210A4800F01AFCD4E7BD21074800F0BE
:1005300015FCD1E70023DCE705F00F052401E4B248
:10054000034B5C55EBE700BF00ED00E0982000088E
:1005500014ED00E00138B0F1807F0AD2064B5860FC
:10056000064AF02182F823100020986007221A60C2
:1005700070470120704700BF10E000E000ED00E090
:1005800010B50446042800D038B9042C0BD0094A11
:10059000136823F00403136010BD40F2B311064842
:1005A00000F0DCFBF1E7034A136843F00403136037
:1005B000F2E700BF10E000E09820000830B583B0FB
:1005C000044603680F2B29D8236813F0010F3DD090
:1005D0006368012B01D9052B25D1A34B9B6803F040
:1005E0000C03042B29D0A04B9B6803F00C03082BB1
:1005F0001ED022799D4B1A706368002B50D0FFF7F4
:100600003FFF0546984B1B6813F4003F1ED1FFF7D0
:1006100037FF401B6428F5D90320E3E1F521944816
:1006200000F09CFBD0E7FA21914800F097FBD4E75B
:100630008D4B5B6813F4800FDBD08B4B1B6813F47E
:10064000003F03D06368002B00F0C981236813F0DA
:10065000020F5DD0E368012B31D823691F2B34D8FA
:10066000814B9B6813F00C0F3AD07F4B9B6803F0D3
:100670000C03082B2FD0E368002B74D07D4B012294
:100680001A60FFF7FDFE0546774B1B6813F0020F5B
:100690005AD1FFF7F5FE401B0228F5D90320A1E14E
:1006A000FFF7EEFE0546704B1B6813F4003FCDD0FC
:1006B000FFF7E6FE401B6428F5D9032092E14FF4D2
:1006C00096716B4800F04AFBC7E740F22D1168486D
:1006D00000F044FBC4E7644B5B6813F4800FCAD19D
:1006E000614B1B6813F0020F04D0E368012B01D0AB
:1006F000012077E15C48036823F0F8032169F822C0
:1007000092FAA2F2B2FA82F201FA02F21343036001
:10071000236813F0080F50D06369012B35D8636943
:10072000002B38D0544B01221A60FFF7A9FE054672
:100730004D4B5B6F13F0020F3FD1FFF7A1FE401B43
:100740000228F5D903204DE14748036823F0F80358
:100750002169F82292FAA2F2B2FA82F201FA02F2C6
:1007600013430360D4E7434B00221A60FFF788FE6F
:1007700005463D4B1B6813F0020FC9D0FFF780FE02
:10078000401B0228F5D903202CE140F26D113848B6
:1007900000F0E4FAC3E7384B00221A60FFF770FE5E
:1007A0000546314B5B6F13F0020F06D0FFF768FE72
:1007B000401B0228F5D9032014E1236813F0040F2D
:1007C00060D0A368012B01D9052B1FD10023019311
:1007D000254B1A6C42F080521A641B6C03F0805354
:1007E0000193019B254A136843F480731360FFF75C
:1007F00047FE0546214B1B6813F4807F0CD1FFF7A1
:100800003FFE401B0228F5D90320EBE040F2971190
:10081000174800F0A3FAD9E7227A194B1A70A36897
:1008200083B1FFF72DFE05460F4B1B6F13F0020F30
:1008300028D1FFF725FE401B41F288339842F3D9B7
:100840000320CFE0FFF71CFE0546074B1B6F13F09C
:10085000020F17D0FFF714FE401B41F28833984275
:10086000F3D90320BEE000BF003802400238024046
:10087000DC20000800004742800E47420070004024
:1008800070380240A369022B39D8A369002B00F00D
:10089000A880564A926802F00C02082A00F0A48050
:1008A000022B40F08880E36913B1B3F5800F2CD19F
:1008B000236A3F2B2FD8636A323BB3F5BF7F30D812
:1008C000A36A022B05D0042B03D0062B01D0082BE2
:1008D0002DD1E36A043B0B2B2FD8454B00221A6025
:1008E000FFF7CEFD0546414B1B6813F0007F2AD071
:1008F000FFF7C6FD401B0228F5D9032072E04FF434
:10090000E6713C4800F02AFABFE740F2D5113948B9
:1009100000F024FACCE74FF4EB71364800F01EFAF1
:10092000C9E740F2D711334800F018FAC8E74FF48E
:10093000EC71304800F012FACBE740F2D9112D48A3
:1009400000F00CFAC9E7E369226A1343616A47F6CB
:10095000C07292FAA2F2B2FA82F201FA02F21343E0
:10096000A26A5208013A4FF4403191FAA1F1B1FA6A
:1009700081F18A401343E16A4FF0706292FAA2F269
:10098000B2FA82F201FA02F21343184A5360184B8A
:1009900001221A60FFF774FD0446144B1B6813F024
:1009A000007F06D1FFF76CFD001B0228F5D903205C
:1009B00018E0002016E00E4B00221A60FFF760FDE1
:1009C00004460A4B1B6813F0007F06D0FFF758FD62
:1009D000001B0228F5D9032004E0002002E00120DA
:1009E00000E0002003B030BD0120FBE700380240EA
:1009F00060004742DC200008214B9B6803F00C0399
:100A0000042B3AD0082B01D01E4870471C4B586865
:100A100000F03F005B6813F4800F1ED01A4AB2FB4F
:100A2000F0F2174B586847F6C073184093FAA3F3D7
:100A3000B3FA83F3D84000FB02F0114B5B6803F478
:100A400040334FF4403292FAA2F2B2FA82F2D3402B
:100A500001335B00B0FBF3F070470A4AB2FBF0F2DF
:100A6000074B586847F6C073184093FAA3F3B3FADC
:100A700083F3D84000FB02F0DFE70348704700BF74
:100A8000003802400024F40040787D0170B504462F
:100A90000D460368013B0E2B11D8072D15D88C4B42
:100AA0001B6803F00F03AB4215D2EBB2884A1370F8
:100AB000136803F00F03AB420DD0012070BD40F26C
:100AC0003721844800F04AF9E7E74FF40E71814876
:100AD00000F044F9E3E7236813F0020F18D0A3688D
:100AE0007BB1802B0DD0902B0BD0A02B09D0B02B3D
:100AF00007D0C02B05D0D02B03D0E02B01D0F02B9A
:100B000037D1754A936823F0F003A1680B439360D3
:100B1000236813F0010F73D06368032B2FD8636829
:100B2000012B32D09A1E012A36D96B4A126812F074
:100B3000020F00F0CA8068498A6822F0030213435A
:100B40008B60FFF79DFC06466368012B2BD0022BC0
:100B500038D0032B45D0604B9B6813F00C0F4FD05F
:100B6000FFF78EFC801B41F288339842F3D90320B3
:100B7000A4E740F24F21574800F0F0F8C1E740F2F7
:100B80005621544800F0EAF8C9E7534A126812F4B3
:100B9000003FD0D1012091E74F4A126812F0007F48
:100BA000C9D101208AE74C4B9B6803F00C03042B4E
:100BB00026D0FFF765FC801B41F288339842F2D9BA
:100BC00003207BE7444B9B6803F00C03082B17D0F2
:100BD000FFF756FC801B41F288339842F2D903207C
:100BE0006CE73D4B9B6803F00C030C2B08D0FFF720
:100BF00047FC801B41F288339842F2D903205DE71D
:100C0000334B1B6803F00F03AB4209D9EAB2304BF8
:100C10001A701B6803F00F03AB4201D001204DE7AF
:100C2000236813F0040F14D0E3685BB1B3F5805F61
:100C300008D0B3F5A05F05D0B3F5C05F02D0B3F51F
:100C4000E05F36D1244A936823F4E053E1680B4314
:100C50009360236813F0080F15D023695BB1B3F5D7
:100C6000805F08D0B3F5A05F05D0B3F5C05F02D0B8
:100C7000B3F5E05F23D1184A936823F460432169F8
:100C800043EAC1039360FFF7B7FE134B9B6803F081
:100C9000F003F02292FAA2F2B2FA82F2D3400F4AA3
:100CA000D35CD8400E4B18600F20FFF7B9FB002033
:100CB00004E74FF42D71074800F050F8C2E740F206
:100CC000BB21044800F04AF8D5E70120F6E600BF52
:100CD000003C0240DC20000800380240CC20000824
:100CE0000C000020014B1868704700BF0C0000206A
:100CF000FEE7000008B5034800F052F80120FFF7B6
:100D0000F7FF00BF0C21000808B503460C4A126823
:100D10005AB10B4A1068033323F003030344094A12
:100D2000934206D8064A136008BD054A0649116079
:100D3000EFE700F031FD0C2303604FF0FF30F3E7E5
:100D40007C00002000FC00205C01002001230360E7
:100D5000014B0B60704700BF0400002008B50A4635
:100D60000146024800F004F8FFF7C4FF2021000804
:100D70000FB400B583B004AB53F8042B019380216A
:100D8000064800F043FD002803DD0146034800F05B
:100D900047F803B05DF804EB04B07047840000200E
:100DA00010B5044600F0FEFC0146204600F038F87D
:100DB0000121024800F034F810BD00BFE421000812
:100DC0002DE9F04385B004460F4643560BB10E465D
:100DD0001EE0042528462146ABBE0446384605B031
:100DE000BDE8F08314F9011B04AA1A4402F8101C90
:100DF0000133AB42F6D304AA1344002203F8102CAB
:100E00004FF00408E94640464946ABBE8046761B93
:100E1000002EE3D03546102E28BF10250023E8E72A
:100E200008B5FFF7CDFF08BD08B500F093F8024AFA
:100E3000024B9A6008BD00BF0000000800ED00E012
:100E4000F8B504460D4617461E462748FFF790FFA3
:100E500021682648FFF78CFF61682548FFF788FF67
:100E6000A1682448FFF784FFE1682348FFF780FF6B
:100E700021692248FFF77CFF61692148FFF778FF6D
:100E8000A1692048FFF774FFE1691F48FFF770FF71
:100E90001E48FFF76DFF29461D48FFF769FF1D4CEF
:100EA000E16A1D48FFF764FF216B1C48FFF760FFF4
:100EB000E16B1B48FFF75CFF15F0800F0AD115F4BA
:100EC000004F0CD11748FFF753FF06991648FFF75C
:100ED0004FFFF8BD39461548FFF74AFFEFE73146A7
:100EE0001348FFF745FFEDE74C2100085C2100089F
:100EF0006C2100087C2100088C2100089C2100083E
:100F0000AC210008BC210008CC210008DC2100082D
:100F1000E821000800ED00E0F821000808220008A0
:100F20001822000848220008502200082822000841
:100F30003822000883691A888A4201D0002070474D
:100F40000268033A012A03D8023383610120704703
:100F5000002070470C4B1A6842F001021A60002111
:100F600099601A6822F0847222F480321A60074A6B
:100F70005A601A6822F480221A60D960044B4FF03C
:100F800000629A60704700BF0038024010300024B1
:100F900000ED00E0224B9B6803F00C03042B14D0FF
:100FA000082B16D01BB11F4B1F4A1A6002E01D4BC5
:100FB0001D4A1A601A4B9B68C3F303131B4AD15C8A
:100FC000184A1368CB4013607047164B184A1A60D2
:100FD000F0E7134B5A685B6803F03F0312F4800F8D
:100FE00013D0134AB2FBF3F20D4B5B68C3F38813C3
:100FF00003FB02F30A4A5268C2F301420132520073
:10100000B3FBF2F3074A1360D4E7074AB2FBF3F2EB
:10101000034B5B68C3F3881303FB02F3EAE700BFEB
:10102000003802400C0000200024F4009422000844
:1010300040787D0108B5054B1B6803B19847044A09
:10104000536943F00103536108BD00BF0401002050
:10105000003C014008B5054B5B6803B19847044A62
:10106000536943F00103536108BD00BF0401002030
:10107000003C0140012828D010B102284AD0704716
:10108000032A6BD8DFE802F002060F18344B1A6807
:101090001A607047324803684900012202FA01F1E0
:1010A0000B43036070472E4803684900022202FA8E
:1010B00001F10B430360704729480368490003228C
:1010C00002FA01F10B4303607047032A46D8DFE8B8
:1010D00002F002060F18234B1A681A607047214865
:1010E00003684900012202FA01F10B4303607047D3
:1010F0001C4803684900022202FA01F10B43036015
:101100007047184803684900032202FA01F10B43B3
:1011100003607047032A21D8DFE802F002060F18A7
:10112000114B1A681A6070470F4803684900012282
:1011300002FA01F10B43036070470B480368490052
:10114000022202FA01F10B4303607047064803686C
:101150004900032202FA01F119430160704700BF00
:1011600000000240000402400008024001281FD095
:1011700010B1022838D07047012A07D012B1022AD4
:101180000DD07047264B1A681A60704724480368D0
:101190004900012202FA01F10B4303607047204825
:1011A00003684900022202FA01F10B430360704711
:1011B000012A07D012B1022A0DD07047194B1A68C4
:1011C0001A607047174803684900012202FA01F1CA
:1011D0000B4303607047134803684900022202FA78
:1011E00001F10B4303607047012A07D012B1022AB4
:1011F0000DD070470C4B1A681A6070470A48036894
:101200004900012202FA01F10B43036070470648CE
:1012100003684900022202FA01F119430160704794
:101220000C0002400C0402400C080240012828D0A7
:1012300010B102284AD07047032A6BD8DFE802F0C9
:1012400002060F18344B1A681A6070473248036858
:101250004900012202FA01F10B43036070472E4856
:1012600003684900022202FA01F10B430360704750
:10127000294803684900032202FA01F10B43036085
:101280007047032A46D8DFE802F002060F18234B06
:101290001A681A607047214803684900012202FA5F
:1012A00001F10B43036070471C48036849000222A8
:1012B00002FA01F10B4303607047184803684900C4
:1012C000032202FA01F10B4303607047032A21D87D
:1012D000DFE802F002060F18114B1A681A60704717
:1012E0000F4803684900012202FA01F10B43036031
:1012F00070470B4803684900022202FA01F10B43D0
:1013000003607047064803684900032202FA01F1AE
:1013100019430160704700BF080002400804024002
:1013200008080240012816D010B1022826D07047C4
:1013300042B1012A34D11B48036802FA01F1194372
:101340000160704717480368012202FA01F123EA9D
:1013500001010160704742B1012A21D1124803689E
:1013600002FA01F11943016070470F480368012236
:1013700002FA01F123EA01010160704742B1012A3A
:101380000ED10A48036802FA01F11943016070475F
:1013900006480368012202FA01F123EA0101016013
:1013A000704700BF140002401404024014080240B9
:1013B00018BB10B4072911D90F291CD80F4804688D
:1013C000A1F108039B000F21994024EA010101606B
:1013D000046802FA03F1214301600CE0074B18682E
:1013E00089000F248C4020EA04001860186802FA73
:1013F00001F10143196010BC7047704720000240A2
:101400000A4B1A6842F001021A609A6822F001023F
:101410009A609A6822F002029A609A6822F0F002BA
:101420009A609A6842F080029A60704700380240E1
:10143000032822D8DFE800F0020A121A0F48036BD3
:10144000012202FA01F11943016370470B48436B13
:10145000012202FA01F11943416370470748036C06
:10146000012202FA01F11943016470470348436CF9
:10147000012202FA01F11943416470470038024029
:1014800008B5022207210020FFF7F4FD0222052102
:101490000020FFF7EFFD002207211046FFF7C6FEF0
:1014A000002205211046FFF7C1FE0522072100207A
:1014B000FFF77EFF052211460020FFF779FF022289
:1014C00004210020FFF7D6FD012204210020FFF7B0
:1014D0004DFE052204210020FFF76AFF024B40F277
:1014E00047321A6008BD00BF00300140044BD8608D
:1014F000034B9B6813F0800FFAD1C8B2704700BF4E
:101500000030014008B5024B1B68984708BD00BF7A
:10151000540100200138044B1860044A136843F05A
:1015200001031360704700BF14E000E010E000E02A
:1015300008B5FFF7EFFF044B1B6813F4803FFAD0A8
:10154000024B00221A6008BD10E000E018E000E045
:1015500010B582B00446012200210846FFF7E2FEE2
:101560000DF107012046FFF7C1FF02B010BD10B515
:1015700082B00446002211461046FFF7D3FE0DF15B
:1015800007012046FFF7B2FF02B010BD10B50122DF
:1015900000210846FFF76EFD012211460020FFF7EB
:1015A00069FD002211461046FFF740FE002201218E
:1015B0001046FFF73BFE012211460020FFF7B2FE66
:1015C0006420FFF7B5FF002201211046FFF7AAFEB5
:1015D0000120FFF7ADFF012211460020FFF7A2FE18
:1015E0006420FFF7A5FF002201211046FFF79AFEB5
:1015F0006420FFF79DFF012211460020FFF792FEB5
:10160000094C2046FFF794FF1120FFF7B0FF20465A
:10161000FFF78EFF3A20FFF7AAFF0520FFF798FF9C
:101620002920FFF7A4FF10BDF0490200F8B50746D6
:101630000E4615461C462A20FFF799FF0020FFF7AB
:1016400087FF3846FFF784FF0020FFF781FF304611
:10165000FFF77EFF2B20FFF78AFF0020FFF778FFC0
:101660002846FFF775FF0020FFF772FF2046FFF7BF
:101670006FFFF8BD38B505469F2300227F21104635
:10168000FFF7D4FF2C20FFF772FF00240AE035F8A3
:101690001400000AFFF75CFF15F81400FFF758FF6D
:1016A0000134A4B2B4F5A04FF1D338BD70B594B0F5
:1016B00000240194204B1A6C42F080521A641B6C77
:1016C00003F080530193019B02941C4B1A6842F46F
:1016D00040421A601B6803F440430293029B0123BB
:1016E000089309934FF480030F93192310934FF439
:1016F000A8731193042612960723139302250E95BF
:1017000008A8FEF75BFF0F230393049505944FF49D
:10171000805306930794294603A8FFF7B7F9FFF70C
:10172000E1FA074BA3FB00308009FEF713FF3046B8
:10173000FEF726FF14B070BD003802400070004074
:10174000D34D621008B5FEF781FEFFF7AFFFFFF73C
:1017500021FC08BD08B5FFF753FE01220021084611
:10176000FFF788FC012211460020FFF783FC0021CF
:101770000846FFF75DFE0C210320FFF759FEFFF737
:101780007FFEFFF703FF0248FFF774FFFEE700BF8D
:10179000A422000870470000014B1868704700BF82
:1017A00010000020034613F8012B002AFBD1181A61
:1017B0000138704730B5141E05469BB0184605DA4F
:1017C0008B232B604FF0FF301BB030BD4FF4027302
:1017D000ADF80C3014BF04F1FF3323460293059398
:1017E0004FF6FF7300910491ADF80E3002461E9B38
:1017F0006946284600F072F8431CBCBF8B232B605F
:10180000002CE1D0009B00221A70DDE707B50093A1
:1018100013460A46014603480068FFF7CBFF03B0B2
:101820005DF804FB100000202DE9F0478E689E4211
:1018300082460C469046994637D88A8912F4906FB2
:1018400031D0256809696F1A6569022305EB4505E2
:1018500095FBF3F509F101033B449D4238BF1D465A
:10186000530530D5294600F07DFB064650B90C23C0
:10187000CAF80030A38943F04003A3814FF0FF3042
:10188000BDE8F0873A46216900F0FAFAA38923F40B
:10189000906343F08003A381266165613E44ED1BA4
:1018A0002660A5604E464E4500D94E46324641461A
:1018B000206800F0F0FAA3689B1BA36023681E4415
:1018C00026600020DCE72A4600F0A6FB064600283A
:1018D000E2D12169504600F0F7FAC8E72DE9F04F50
:1018E0009DB0804603938B891D060C4616460FD586
:1018F0000B696BB9402100F035FB2060206128B9ED
:101900000C23C8F800304FF0FF30C7E0402363617C
:101910000023099320238DF8293030238DF82A30B5
:101920004FF0010B37463D4615F8013B0BB1252B17
:101930003ED1B7EB060A0BD053463246214640460D
:10194000FFF772FF013000F0A480099B5344099314
:101950003B78002B00F09D8000234FF0FF32CDE953
:101960000523049307938DF853301A932F460522CD
:1019700017F8011B4F4800F033FA049BD0B9D90681
:1019800044BF20228DF853201A0744BF2B228DF824
:1019900053202A782A2A15D0079A2F4600200A2594
:1019A000394611F8013B303B092B4DD9B8B10FE056
:1019B0002F46B8E73F4A801A0BFA00F0184304900C
:1019C0003D46D3E7039A111D12680391002A01DBFB
:1019D000079204E0524243F00203079204933B78DB
:1019E0002E2B0CD17B782A2B33D1039B1A1D1B681D
:1019F0000392002BB8BF4FF0FF33023705932E4DF3
:101A000039780322284600F0EBF938B14023401B17
:101A100003FA00F0049B0343013704933978274805
:101A20008DF8281006227E1C00F0DAF9002838D044
:101A3000234B13BB039B073323F0070308330393A4
:101A4000099B4B4409936DE705FB023201200F46C9
:101A5000A6E700230137059319460A25384610F8F2
:101A6000012B303A092A03D9002BC8D00591C6E7CB
:101A700005FB012101230746F0E703AB0093224653
:101A8000104B04A94046AFF30080B0F1FF3F814600
:101A9000D6D1A3895B063FF536AF09981DB0BDE8E6
:101AA000F08F03AB00932246064B04A9404600F09A
:101AB00081F8EAE7A4120108AA120108AE1201088F
:101AC00000000000291800082DE9F04791461F4644
:101AD0008A680B69DDF820809342B8BF1346C9F8C5
:101AE000003091F8432006460C4612B10133C9F884
:101AF00000302368990642BFD9F800300233C9F894
:101B00000030256815F0060507D104F1190AE368CD
:101B1000D9F800209B1AAB4228DC94F843302268A5
:101B2000003318BF012392062DD404F14302394635
:101B30003046C047013020D02368E568D9F800203E
:101B400003F00603042B08BFAD1AA36822690CBF7B
:101B500025EAE57500259342C4BF9B1AED184FF0A6
:101B600000091A344D451AD1002008E001235246DD
:101B700039463046C047013003D14FF0FF30BDE851
:101B8000F0870135C3E7E1185A1C302081F8430083
:101B9000224494F8451082F843100233C5E701232C
:101BA000224639463046C0470130E6D009F10109E6
:101BB000D8E700002DE9F04301F1430C0C46097E03
:101BC00085B06E291746064698460C9A00F0B380F9
:101BD00022D8632936D00AD8002900F0B9805829C4
:101BE00000F0838004F1420584F8421032E0642959
:101BF00001D06929F6D120681368050603F10401B4
:101C00002AD51B681160002B03DA2D225B4284F871
:101C100043206F480A2239E0732900F09D8008D8DC
:101C20006F2920D07029DDD1236843F02003236081
:101C300003E0752917D07829D4D1782384F845306A
:101C4000644855E01368191D1B68116004F14205D2
:101C500084F8423001238CE01B68116010F0400FC3
:101C600018BF1BB2CFE713682568181D106028063F
:101C700001D51B6802E06806FBD51B8854486F2914
:101C800014BF0A220822002184F843106568A56069
:101C9000002DC0F29580216821F004012160002B05
:101CA0003DD1002D40F08E806546082A0BD1236877
:101CB000DB0708D5236962689A42DEBF302305F846
:101CC000013C05F1FF35ACEB05032361CDF8008045
:101CD0003B4603AA21463046FFF7F6FE01304DD1C0
:101CE0004FF0FF3005B0BDE8F083394884F8451067
:101CF000136821681D1D1B6815600A060BD5CA07ED
:101D000044BF41F0200121601BB9226822F020026B
:101D100022601022B7E74D0648BF9BB2EFE7654649
:101D2000B3FBF2F102FB1133C35C05F8013D0B4636
:101D30000029F5D1B9E7136825686169181D10609D
:101D400028061B6801D5196002E06A06FBD51980D8
:101D5000002323616546B9E71368191D11601D68EA
:101D600062680021284600F03BF808B1401B606023
:101D700063682361002384F84330A7E723692A4678
:101D800039463046C0470130AAD023689B0713D498
:101D9000E068039B9842B8BF1846A3E701234A4670
:101DA00039463046C04701309AD00135E368039A7E
:101DB0009B1AAB42F2DCEBE7002504F11909F5E7C9
:101DC000002BACD1037884F8423004F142056CE773
:101DD000B5120108C6120108000000000000000052
:101DE00001F0FF01102A2BDB10F0070F08D010F8CC
:101DF000013B013A8B422DD010F0070F42B3F6D1D0
:101E0000F0B441EA012141EA014122F007047FF0E8
:101E100000070023F0E80256083C85EA010586EA3F
:101E2000010685FA47F5A3FA87F586FA47F6A5FA7B
:101E300087F68EB9EED1F0BC01F0FF0102F0070287
:101E400032B110F8013B013A83EA010313B1F8D132
:101E50000020704701387047002D06BF3546033813
:101E6000073815F0010F07D1013015F4807F02BF4C
:101E7000013015F4C03F0130F0BC0138704700BF9D
:101E800010B5431E0A44914200D110BD11F8014B18
:101E900003F8014FF7E7884210B501EB020307D8BA
:101EA000421E99420AD011F8014B02F8014FF8E79F
:101EB0008342F5D98118D21AD34200D110BD13F84C
:101EC000014D01F8014DF7E738B50546002945D029
:101ED00051F8043C0C1F002BB8BFE41800F0D2F8F6
:101EE0001F4A1368104633B9636014602846BDE882
:101EF000384000F0C8B8A3420CD921686218934258
:101F000004BF1A685B68636004BF521822600460F3
:101F1000ECE713465A680AB1A242FAD91968581870
:101F2000A0420BD120680144581882421960DDD1CB
:101F3000106852685A6001441960D7E702D90C232F
:101F40002B60D3E7206821188A4204BF11685268C9
:101F5000626004BF091821605C60C7E738BD00BF3C
:101F60004401002070B5CD1C25F0030508350C2D6B
:101F700038BF0C25002D064601DBA94203D90C23EE
:101F80003360002070BD00F07DF8214A14682146BE
:101F900091B9204C23681BB9304600F063F82060EB
:101FA0002946304600F05EF8431C24D10C233360F0
:101FB000304600F068F8E4E70B685B1B18D40B2B85
:101FC0000FD90B60CD50CC18304600F05CF804F10E
:101FD0000B00231D20F00700C31AD3D05A42E25051
:101FE000D0E78C424B6816BF636013600C46EBE78A
:101FF0000C464968CCE7C41C24F00304A04205D079
:10200000211A304600F02EF80130CFD02560DBE7F2
:102010004401002048010020F8B5074614460E464A
:1020200021B91146BDE8F840FFF79CBF22B9FFF780
:102030004BFF25462846F8BD00F026F8A0420FD2F7
:1020400021463846FFF78EFF05460028F2D031467C
:102050002246FFF715FF31463846FFF735FFE9E71F
:102060003546E7E738B5064C0023054608462360A9
:10207000FEF74AFE431C02D1236803B12B6038BD32
:10208000500100207047704751F8043C181F002B86
:10209000BCBF0B58C01870472E2E2F737973746510
:1020A0006D2F7372632F73746D333266342D6861D4
:1020B0006C2F73746D3332663478785F68616C5F4F
:1020C000636F727465782E630000000000000000EA
:1020D0000102030401020304060708092E2E2F73D0
:1020E000797374656D2F7372632F73746D333266F9
:1020F000342D68616C2F73746D3332663478785F79
:1021000068616C5F7263632E6300000061626F72CE
:102110007428292C2065786974696E672E2E2E002C
:102120006173736572745F706172616D28292066D6
:1021300061696C65643A2066696C652022257322AA
:102140002C206C696E652025640A0000537461635D
:102150006B206672616D653A0A00000020523020E3
:102160003D2020253038580A000000002052312040
:102170003D2020253038580A00000000205232202F
:102180003D2020253038580A00000000205233201E
:102190003D2020253038580A0000000020523132FE
:1021A000203D20253038580A00000000204C5220E5
:1021B0003D2020253038580A0000000020504320E0
:1021C0003D2020253038580A00000000205053528E
:1021D000203D20253038580A000000004653522F79
:1021E0004641523A0A0000002043465352203D2007
:1021F00020253038580A00002048465352203D2000
:1022000020253038580A00002044465352203D20F3
:1022100020253038580A00002041465352203D20E6
:1022200020253038580A0000204D4D464152203DAF
:1022300020253038580A00002042464152203D20D7
:1022400020253038580A00004D6973630A000000E9
:10225000204C522F4558435F52455455524E3D2015
:10226000253038580A0000005B4861726446617589
:102270006C745D0A000000005B4275734661756C0A
:10228000745D0A005B55736167654661756C745DCA
:102290000A0000000000000000000000010203042A
:1022A00006070809F2F229F2292A1E1F231E2221FD
:1022B0001D1F1D1E1C1B191B1F1A1E1D222423233C
:1022C00022212123252224232325242423222123E0
:1022D00024222322222423232221232524242322CF
:1022E00021232422232223252624252424262425B1
:1022F00023222325252424232123222221202022B6
:102300002121201F1F212120201F1B1D1A1C1918ED
:1023100020222121201F1E201F1F1E1D1C1F1F1ECB
:102320001C1D1F201F1C1C1E1E1F221C1F212324BE
:102330002521222422232320212222242323222177
:102340002224232321211E1E1A1F1D1B1D1D1C1F9D
:102350001E1C18181D1A1F1D1B1B201D22202323A5
:10236000242627232627242B282322232527292414
:1023700023242528292424252529282528272129FF
:1023800023212424252627242425252929242526FC
:10239000232A272221211722171710100F100F0FA1
:1023A0000F0F110F111115151E151E1E20202220B2
:1023B000201F20222121201F1E201F1F1C1D181935
:1023C0001416111317181B151A1B1B1B1C1C1C1C85
:1023D0001C1C181C18181B1B1F1B1F1F1F1F1E1F38
:1023E0001E1E1D1D1C1D1C1C1C1C1B1C1B1B1B1B2B
:1023F0001C1B1C1C1D1D1F1D1F1F1F1F1E1F1E1E03
:102400001F1F1C1F1C1C17171617161619191B192E
:102410001B1B1C1C1D1C1D1D20201F201F1F1D1DE4
:102420001B1D1B1BF1F12AF12A2B1F202520242321
:102430001E201C1F1B1A1A1C1E1B1D1C22242423B9
:102440002322222426232524242626252524232549
:102450002524242324262525242322242323222142
:10246000222425232423232525242423242623252D
:10247000222122242423232220222121201F1F2144
:1024800020201F1E1E20221F2120191B1C1A1B1A70
:102490001F2120201F1E1D1F1E1E1D1C1D20201F52
:1024A0001D1E1F201F1B1C1E1F20211D1E2024253A
:1024B000242221232122221F202121242223212002
:1024C0002123222220201C1C1B1D1D1B1E1E1A2026
:1024D0001C1A1B1B1F1D211F1C1C211E2321242411
:1024E000242728232526222A2621232426282A2594
:1024F0002526272A2B262627272C2A262424212571
:10250000232123232325262324252A292E2928296C
:10251000242D282321211722171710100F100F0F19
:102520000F0F110F111114141D141D1D2020222036
:1025300021202123222221201F211F201C1E1819A7
:102540001516121416171A14191A1B1A1B1B1B1B0B
:102550001C1C1A1C1A1A1C1C211C21211F1F1E1FA7
:102560001E1E1D1D1B1D1B1B1C1C1C1C1C1C1D1DA5
:102570001F1D1F1F1F1F1E1F1E1E20201F201F1F6D
:102580001D1D171D17171515191519191D1D1E1DB0
:102590001E1E1D1D1F1D1F1F1F1F1E1F1E1E1C1C5C
:1025A000151C1515F2F22BF22B2B202124202322AF
:1025B0001E201E1F1D1C1A1C1D1B1C1B2224252334
:1025C00024232426262525242325252424232426C4
:1025D00025252423222424232322232525242423C0
:1025E00024262625252423252524242324262625A0
:1025F00025242325252424232123222221202022AF
:102600002121201F202222212120191B1F1A1E1DDB
:102610001F21222021201F211F201E1D1C1E1F1DC7
:102620001C1D1F1F1E1C1C1D1E1F201C1D1F2223C6
:102630002320202223242421212223242523242370
:10264000212320221F1E1C1C1C1D1E1C1E1E1920A7
:102650001B191D1D1E1F201E1D1D211F222124248C
:10266000252629242526222A262124252529292410
:102670002627272B2B2627282B2C2E2A25252127DA
:10268000232125252A272C2A292A2E2E322D2728B8
:10269000232C272221211721171710100F100F0F9D
:1026A0000F0F110F111115151E151E1E20202120B0
:1026B000201F1F212120201F1E201B1F181A151646
:1026C0001613131518191B161A1B1C1B1D1C1D1D78
:1026D0001E1E1D1E1D1D1D1D201D20201F1F1E1F17
:1026E0001E1E1C1C1C1C1C1C1E1E1F1E1F1F1F1F11
:1026F000201F202020201F201F1F1F1F1D1F1D1DEA
:1027000017171517151519191D191D1D1D1D1F1D2D
:102710001F1F1F1F1F1F1F1F1E1E1F1E1F1F1919D8
:102720000F190F0FF2F22BF22B2B2021252124233E
:102730001F211F201E1D191B1D1A1C1B21232422B3
:10274000232223252724252524262625252424263F
:10275000272526252325252424232426252524232F
:102760002224252324232325262425242325272426
:10277000262524262525242323252324222120221F
:102780002221212020222121201F191B231A22214E
:102790002224232322211F2120201F1E1D1F1E1E35
:1027A0001C1D1F201F1C1C1E1D1E211B1E20222342
:1027B00022201F212223231F2022212324222322FF
:1027C00021232122201F1D1D1E1E201E1D1D1A1F1C
:1027D0001C1A1E1E1E20201E1C1C221E2422252503
:1027E00028272C272627232B272224252429282382
:1027F0002526252A292428292C2D2F2B242323255F
:1028000025232423352537352E2F29332E2823241D
:102810002229262121211722171710100F100F0F20
:102820000E0E110E111115151F151F1F202120202E
:102830001F1E1E20221F21201E20191F16171415CF
:10284000171114161A1B1D181C1D1E1E201E2020D9
:1028500021211F211F1F1C1C1F1C1F1F1E1E1D1E90
:102860001D1D1E1E1E1E1E1E212121212121222270
:102870002122212120201E201E1E1B1B171B171783
:102880001616191619191C1C1F1C1F1F1E1E1F1E91
:102890001F1F20201E201E1E1F1F1F1F1F1F16165A
:1028A0000F160F0FF1F12CF12C2C212226222524BA
:1028B00020221F211E1D1A1C1E1B1D1C2325252422
:1028C00024232325272427252628282828262426AC
:1028D00026262624262825272423212324222322B2
:1028E00022242423232221232622252424262625AC
:1028F00025242325252424232325232422212022A3
:10290000232122211F211E201D1C1D1F231E2221C9
:102910002022222121201F2120201F1E1D1F1F1FBA
:102920001C1D1E1F1E1C1C1D1E1F201C1D1F2122C6
:10293000221F1F212222221F202121232322232183
:10294000202220211F1E1D1E201F22201B1B1B1D9D
:102950001D1B1F1F1C211E1C1E1E23202523252579
:102960002A282E292526232A2722232426282A25F9
:102970002829272D2B262C2E2E32312E22222324BD
:10298000252323222D242F2D2A2A262D29262323D1
:102990002226252221211721171710100F100F0FA3
:1029A0000F0F110F111115151D151D1D20202120B0
:1029B000201F1F212120201F1C1E181D171716174E
:1029C0001A1618181B1D201B1F1E20212220212033
:1029D0002223212321201B1B201B20201F1F1E1F01
:1029E0001E1E1F1F201F20202121212121212121E6
:1029F0002121212120201E201E1E1717171717170F
:102A00001A1A1C1A1C1C1F1F1F1F1F1F1E1E1F1EF1
:102A10001F1F1F1F1E1F1E1E21211D211D1D1212E3
:102A200012121212F1F12AF12A2A22232623252436
:102A30001F2120201F1E191B1F1A1E1D242627259B
:102A4000262524262625272424262727282524262C
:102A50002527252324262425232222242523242335
:102A6000232525242423232527242625242626251B
:102A70002524242626252524222422232120202221
:102A80002121201F1F211D201C1B1F21232022214B
:102A90001F212320222120221F211E1D1C1E1F1E3C
:102AA0001D1E1F201E1C1B1D1E1F201C1D1F202144
:102AB000231E2022232322202121212223212321FE
:102AC00021231E221D1C1E1E1F1F211F191A1E1B23
:102AD000201E1D1D1A1F1C1A1D1D221F2322262603
:102AE00029282D282223222726212324252829248A
:102AF0002A2B2D2F312C2C2E2C322F2C2222232529
:102B000025232424272629272828262A2826242462
:102B10002325242321211720171710100F100F0F22
:102B200010101110111117171F171F1F202021201F
:102B30001F1E1F212120201F1A1C171B16151719D5
:102B40001C181B1A1D1F211E201F20222121201EA0
:102B500020222021201F1C1C1F1C1F1F20201F2083
:102B60001F1F20202120212122222122212120205B
:102B70001F201F1F1E1E181E181815151A151A1AA9
:102B80001C1C1D1C1D1D1E1E1E1E1E1E1D1D1E1D71
:102B90001E1E1F1F1F1F1F1F20201A201A1A11116F
:102BA00011111111F1F12CF12C2C212227222625B3
:102BB00020221F211E1D1A1C1E1B1D1C232526241E
:102BC00025242426262526242325252625232527B6
:102BD00028282826222425232423242624252322AA
:102BE00022242523242324262625252423252624A0
:102BF00025242325252424232224222321202022A6
:102C00002121201F1D1F1D1E1C1B212322222120CC
:102C10002022232122211F2120201F1E1D1F1F1FB4
:102C20001C1D1E1F1E1B1B1D1E1F201C1D1F2122C5
:102C3000231F20222223231F20222123232222217B
:102C40001E201E1F1D1C20211B221E1C1818201AAE
:102C500022201C1C1B1E1D1B1D1D211F232128287B
:102C60002C2A302B212223262722222326272A25FD
:102C700027282B2C2F2A2B2C29302C2923232325C2
:102C80002523252528272A282727252927252323E3
:102C90002226252221211721171710100F100F0FA0
:102CA0000F0F110F1110171721172121202021209C
:102CB000201F1E20201F1F1E191B171A1615191B57
:102CC0001E1A1D1C1F21222021201F212120201F10
:102CD0002022212121201D1D1D1D1D1D1F201E1F05
:102CE0001E1E1F1F211F20202020242024242121DC
:102CF0001E211E1E19191319131319191D191D1D33
:102D00001D1D1D1D1D1D1E1E1E1E1E1E1E1E1F1EE8
:102D10001F1F2020202020201F1F161F16161212F2
:102D200013121313F1F12DF12E2E22232722262523
:102D300021231F221E1D1B1D201C1F1E232527248F
:102D40002625252727262725242627272825252722
:102D5000282828262426252524232325262425241F
:102D60002325262425242224252324232426242520
:102D70002322222425232423222422232120212329
:102D8000222221201D1F201E1F1E23252224212038
:102D90001F21232022211F212120201F1E201E1E33
:102DA0001B1C1D1D1D1A1A1C1D1E211B1E2020214F
:102DB000221E1F212223241F2123222422232120FB
:102DC0001D1F1E1E1C1C1F1F19211B191A1A1F1C38
:102DD000211F1C1C1A1E1C1A1F1F222124222525FC
:102DE00028272C272223242728232122242728238D
:102DF0002324262829252B2C29302C282222242460
:102E00002624272728292A282828242A2624242457
:102E10002326252321211722171710100F100F0F1B
:102E2000100F101011111616201620202122212219
:102E3000211F1E201F201E1D1719191818171B1DD2
:102E4000201C1F1E2022232122212022222121207A
:102E50002123212221201E1E1D1E1D1D201F1E1F7D
:102E60001F1F201F2020202120202220222221215C
:102E70001C211C1C1616181618181E1E1F1E1F1F9C
:102E80001E1E1C1E1C1C1F1F1F1F1F1F1D1D201D63
:102E9000202021211F211F1F1D1D151D1515141474
:102EA00016141616F0F02EF02E2E2122272126259C
:102EB000202220211F1E1B1D1F1C1E1D2325272411
:102EC00026252527262526242325272728252325AB
:102ED00026272624252726262524232524252422A3
:102EE00023252524242323252524242323252424A2
:102EF0002322232525242423252724262322202298
:102F00002121201F1B1D211C201F222422232120C0
:102F1000202223212221202220211F1E1E201F1FAC
:102F20001C1D1E1E1E1B1B1D1E1F201C1D1F1F20C7
:102F3000221D1F212323232020222123222221217D
:102F40001E1E1F1E1E1D1E1E18201A181D1D1E1FB0
:102F5000201E1B1B1B1D1D1B1F1F2121232126267D
:102F600028282B272424242827232122242527230B
:102F7000242426282A262A2B262E292621212623E8
:102F800028262727272929272727242926242424D8
:102F90002326252320201721171710100F100F0F9D
:102FA0000F10111010101717211721202022222195
:102FB00020201F211D1F1B1B1517191518171B1D5E
:102FC000201C1F1E1F212220212020222121201F02
:102FD0002022212120201D1E1C1D1C1C1F201F2003
:102FE0001E1E1F20211F212020211F201F1F2020E7
:102FF0001A201A1A17171C171C1C1E1E1E1E1E1E16
:103000001E1E1D1E1D1D1E1E1E1E1E1E1E1E1F1EE2
:103010001F1F2121202120201A1A141A14141616F9
:103020001A161A1AF1F22DF22D2E22232822272504
:10303000212320221F1E1C1E1F1D1E1D232526248A
:10304000252426282725272525272628272426281E
:103050002729282523252526262323252226232024
:103060002123252224232325252424232325252425
:103070002423232525242423242624252322212315
:1030800020221F1E191B241A232223252324222138
:103090002123222221202022222121201F211F2022
:1030A0001D1E1E1F201C1D1F1E1F1F1C1C1E20213D
:1030B000231E2022222423202022222221202021FC
:1030C0001D1D1E1D211F1D1D181F1A181D1D1D1F32
:1030D0001F1D1C1C1D1E1F1D1F1F222124222727F0
:1030E000262928262626222724232121222324229A
:1030F0002424242626242C2C232E25232323272571
:1031000029272828272A2927242425262725242457
:103110002326242321211620161610100F100F0F1E
:1031200010111210110F181A231922212023222105
:103130001F211F201B1D181A15161B1319191B1DE3
:10314000211C201F20222121201F1F212120201F80
:103150002022232122211E201D1F1B1A1E20201F7A
:103160001F1E1E2122202120202220211F1E1A1B6B
:10317000161A16161A1A1C1A1C1C1E1E1F1E1F1F9A
:103180001D1D1E1D1E1E1F1F1F1F1F1F2020202054
:10319000202021211F211F1F171715171515191979
:1031A0001C191C1CF2F22EF22E2E22232923282772
:1031B00022242123201F1B1D201C1F1E2325282401
:1031C000272627292827282626282729282525278E
:1031D00025282623222424252522222423252421B0
:1031E00021232422232222242423232222242523B0
:1031F0002423232525242423232524242322212397
:103200001F221E1D1D1F261E2524222423232221AA
:103210002123232222212022252124231F211E2095
:103220001C1D1E1F1F1B1C1E1D1E201B1D1F2021C1
:10323000221E1F2121232320212324241F221F1F7C
:103240001C1C1F1C211F1B1B191E1B191F1F1E21AD
:10325000201E1B1B1C1D1E1C1F1F2321252327276F
:103260002529272526262228242220202122232121
:103270002222242426242828212A23212424272604
:1032800029272727262928262525242726242424DC
:103290002326252320201720171710100F100F0F9B
:1032A0000F101110100F171922182120212321218E
:1032B0001E201E1F191C161817181C151A1A1C1E62
:1032C000211D201F1F2122202120212322222120F5
:1032D0001F212220212020221E211D1C1D1F201EF7
:1032E0001F1E1E20211F201F1E201D1F1C1B171804
:1032F000181818181E1E1E1E1E1E1D1D1E1D1E1E09
:103300001E1E1D1E1D1D1F1F201F202021212021CC
:10331000202021211C211C1C1717171717171A1AF8
:103320001D1A1D1DF2F22EF22E2E232429242827E9
:103330002325232422211C1E201D1F1E242629256F
:103340002827262827272825242627282825232517
:10335000242725222224232524212022232424213A
:103360002123252224232224252324232224252328
:10337000242324262525242323252524242321230F
:103380001E221D1C1F212520242322242323222129
:103390002224242323222325242423221F211E1F09
:1033A0001C1D1E1F1F1C1C1D1E1F1F1C1C1E202140
:1033B000221E1F2122232320202223231D211D1D05
:1033C0001D1D201D212019191C1C1E1C20201D2222
:1033D0001F1D1B1B1C1D1E1C1F1F242126242828EB
:1033E000272A29272424212623212121212323219F
:1033F00021212523272527271E29201E2424242692
:103400002624232324252624252523272523242475
:10341000222625221F1F181F181810100F100F0F1B
:103420000E0F10100F0E17192118201F2224222111
:103430001F211D1E171B14161A1B1E181D1C1E20D3
:10344000211F201F2022222121202123232222216B
:10345000202222212120212320221F1E1C1E1F1D6D
:103460001E1D1D1F201E1F1E1C1E1A1D191816179B
:103470001B161B1B1F1F1E1F1E1E1E1E1E1E1E1E7A
:103480001E1E1E1E1E1E1F1F201F20201E1E1F1E52
:103490001F1F20201B201B1B19191B191B1B1B1B6B
:1034A0001D1B1D1DF2F22EF22E2E23242923282768
:1034B0002426242523221E20201F1F1E23252824E6
:1034C00027262527282629262729282A282624268C
:1034D00025262523232524252422212322252320B4
:1034E00020222421232223252524242322242523AA
:1034F0002423232524242322222425232423212397
:103500001C221B1A222426232524212322222120A7
:103510002224242323222325232422211E201F1F8B
:103520001D1E1D1E1E1B1B1D1D1E201B1D1F1F20C3
:10353000231D202223242321202220201E1E1E1E84
:103540001F1F1E1F201E18181E1A201E1F1F1D21A0
:103550001F1D1B1B1E1D201E21212623282626265B
:103560002528272525252226242221212023222023
:1035700020202322252324241B261D1B242424262B
:1035800026242424242626242222232425232424FA
:10359000232625231F1F171F171710100F100F0F9B
:1035A0000F0F1010100F181A211921202223212289
:1035B0001E201C1D181A15171B1C20191E1E1F214A
:1035C00022202120202222212120202223212221E9
:1035D0001F212320222122241F231E1D1D1F201EE8
:1035E0001F1E1C1E1F1D1E1D1B1D181C1716181824
:1035F0001C181D1D1D1D1C1D1C1C1D1D1F1D1F1FFE
:103600001E1E1E1E1E1E1F1F201F20201E1E211ECE
:1036100021211F1F1B1F1B1B1A1A1B1A1B1B1C1CE3
:103620001E1C1E1EF2F22EF22E2E222329232827E4
:103630002627262625241F211F201E1D232528245A
:103640002726272929282827272928282826242605
:103650002526252323252324232121232322222138
:10366000212325222423222423232221222425232B
:1036700024232224242323222224252324231F211C
:103680001E201D1C2325252424232123232222211F
:103690002224242323222325242423221F211F2004
:1036A0001D1E1D1E1D1B1A1C1D1E201B1D1F202143
:1036B000231E202223242421212320201D1E1D1D02
:1036C00020201D201F1D18181F1A211F1E1E1D201F
:1036D0001F1D1B1B1E1D201E2424272629272626CE
:1036E0001D281D1C1C1E1C1D1B1A20221F21211FF2
:1036F00020202522272523231A251C1A23232425AD
:103700002624242423262523232323252523242478
:10371000232625231F1F171F17170F0F0F0F0F0F1C
:103720000F0F100F10101A1A221A21212122212105
:103730001E201A1B191816181C1D201A1F1E2022C5
:103740002221212020222221212021232222212066
:10375000202222212120212320221F1E1D1F201E66
:103760001F1E1C1E1C1D1B1A1719191818171D1DAA
:103770001E1D1E1F1D1E1E1D1E1E1E1E1E1E1E1E6B
:103780001E1E1E1E1E1E1F1F201F20202121202145
:1037900020201D1D1B1D1B1B1D1D1C1D1C1C1D1D5C
:1037A0001E1D1E1EF2F22DF22E2E22232A22292861
:1037B0002728252724231F2120201F1E23252924D5
:1037C0002827272929282827272928282726242683
:1037D000252524232224222321201F2122202120C9
:1037E000222425232423242625252423222424239C
:1037F00023222224242323222224242323221C1EA6
:10380000221D21202426242523222224242323228E
:103810002325232422212224232322211E20201F8A
:103820001E1F1C1D1C1A191B1D1E1F1B1C1E2021C8
:10383000231E202223242521222420211D1F1C1D7C
:1038400020201C201D1C1C1C201E22201E1E1D2092
:103850001F1D1C1C201E2220262629282C2A1C1C49
:10386000241E242341432E422D2C151720162220DE
:1038700021212423262421211A231C1A2222232435
:1038800025232424232625232424222624222323FB
:103890002425262420201720171710100F100F0F93
:1038A0001010111011111B1A221B2222222220207B
:1038B0001D1F191A1A1716191D1E201B1E1F1F2146
:1038C0002120201F21232122201F21232122201FEC
:1038D0002123222221202022232122211D1F201EDC
:1038E0001F1E1D1F1D1E1C1B17191A1819181E1F1D
:1038F0001E1E1E1F1E1E1F1E1F1F1F1F1F1F1F1FDE
:103900001F1F1E1F1E1E1F1F211F212122222022BA
:1039100020201B1B1D1B1D1D1E1E1D1E1D1D1E1ED2
:103920001F1E1F1FF1F12EF12E2E24252A242928D7
:10393000262827272625212320221F1E222429234B
:103940002827292B292A28272628282727262628FA
:10395000272726252426242523222123222221202D
:103960002123232222212426242523222224242326
:10397000232321232222212022242123201F1C1E35
:10398000251D242324262425232222242323222107
:103990002224242323222325242423221F211F2001
:1039A0001D1E1D1E1C1B191B1E1F201C1D1F202140
:1039B000221E1F212122231F202220201E1E1E1E08
:1039C0001F1F1A1F1C1A1E1E1F20211F1E1E1D2016
:1039D0001F1D1D1D221F24222828232A25231D1DCB
:1039E000311F302F151732163130292B192A1A188A
:1039F0002121242326241E1E1C201E1C22222424B6
:103A00002624232324252624232323252523252573
:103A1000232725231F1F1720171710100F100F0F14
:103A20000F0F100F10101B1B211B222122221F2100
:103A30001C1E18191B16181A1E1F211C201F2022BD
:103A40002221211F20222221212021232222212064
:103A500021232122201F2022222121201A1C1E1B6B
:103A60001D1C1A1C191B18171B1D1E1C1D1C1E1E9D
:103A70001E1E1E1E1D1E1E1E1E1E1E1E1F1E1E1E66
:103A80001E1E1E1E1E1E1F1F211F202021211F2142
:103A90001F1F1D1D1E1D1E1E1F1F1F1F1F1F20203D
:103AA00021202121F1F22EF12E2E24242924282751
:103AB00025272726262522241F231E1D21232722D2
:103AC0002625282A28292726262828272726272981
:103AD000282827262527252624232224222321209F
:103AE00020222421232222242323222121232523AF
:103AF000242320222222212020221D211C1B1C1EC7
:103B0000261D252423252524242323252224212082
:103B10002123252224232426252524232022202175
:103B20001C1D1E1F1D1C1A1C1D1E211B1E202021BA
:103B3000221E1F212021221E1F211E1E1E1C1E1E92
:103B40001D1D1B1D1C1B1E1E1E20201E1D1D1C1F9F
:103B50001E1C2020232225232929252B2725262624
:103B6000422741401719221821201B1D1D1C1E1D14
:103B70002221252427251E1E1D201F1D2323242529
:103B800026242424242726242424252627252626E3
:103B9000222724231E1E161F161610100F100F0F9B
:103BA0000F0E0F0E0F101C1C221C232221211D2181
:103BB0001A1C18191D161A1C1F20221D2120202333
:103BC00022222120212323222221202223212221DB
:103BD0002123222221202022222121201A1C1B1BEA
:103BE0001A19181A1A1918171A1D1F1C1D1C1F1F25
:103BF0001D1F1E1D1E1D1F1E1F1F1E1D1F1E1F1FE2
:103C00001E1D1D1D1D1E1F1E201E212122221E22C3
:103C10001E1E1D1D1E1D1E1E2020202020202121B5
:103C200022212222F2F230F2303024242A242928C0
:103C300027292728262522242123201F2426292539
:103C400028272729282827262628282727262729FE
:103C50002828272624262425232222242223212023
:103C6000212325222423232525242423232424231C
:103C700022232123222020211D1F1A1D1918212350
:103C800025222423212326222524222424232322FF
:103C90002224242323222325232422211F21202000
:103CA0001D1E1C1D1C1A191B1D1E211B1E2021223E
:103CB000231F20222122221F1F211D1D1F1D201F07
:103CC0001C1C1B1D1D1B20201F22211F1D1D1D1F15
:103CD0001F1D1F2027222A262B2B2A2F2E2A1D1E8E
:103CE00034213533363722382322191A211B232158
:103CF0002323262528261B1B1C1D1E1C22222424B0
:103D00002624242425262725252626292A26252556
:103D10002329262221211921191911110F110F0F01
:103D20000E0F100F100F1A1B221B222120211B1F08
:103D3000181A1A1B1E181B1D1F20211D20211F23AE
:103D4000212120212022232122212123222221205E
:103D50002123222221201F21242023221B1D181C65
:103D6000171616171A161A191D1D1E1D1E1E1E1EA9
:103D70001E1D1C1E1D1D1D1C1C1D1D1D1E1C1E1D73
:103D80001D1E1F1E1E1D1E20211F202021211F2140
:103D90001F1F1F1F1F1F1F1F1F1F201F202020202E
:103DA00020202020F3F32FF32F2F23242A24292847
:103DB00027292728262522242323222125272926AF
:103DC0002827282A29292827252727262625242683
:103DD00027252625252724262322202222212120AB
:103DE00021232322222121232422232224252323A9
:103DF00020232223201F1D1F17191A1719182325E6
:103E00002524242321232522242323252624252475
:103E100023252524242322242223212020221F217C
:103E20001D1E1B1C1C19191B1E1F211C1E202021BE
:103E3000231E2022222321201F201D1D1E1F211E84
:103E40001A1A1D1C1F1D1F1F1E21201E1D1D1D1F98
:103E50001F1D22222A252E282A2B2C2F302B2425E9
:103E60001E29201E23232025222022212024222037
:103E700025252527272518181D1A1F1D2121232335
:103E800025232323242426242627272B2B262426D8
:103E9000222A282120201822181810100F100F0F86
:103EA0000D0F110F100E1A1C231B222120221B2084
:103EB000181A1A1B1F181C1E2021221E2021202226
:103EC0002222212021232122201F1E20211F201FEA
:103ED00021232122201F2022242123221C1E151DE4
:103EE000141315151915191A1E1E1F1E1F1F1D1D2F
:103EF0001F1C1B1F1E1E1C1C1A1C1D1E1F1B1E1BF5
:103F00001C1F201E1F1E1F212220212122212022B2
:103F10002020212121212121202021202121202098
:103F20001E201E1EF2F231F2313024252B252A29C3
:103F300027292628262422242423232225272A262B
:103F40002928282A282927262628272726252426FF
:103F50002725262524262525242322242223212023
:103F60002022232122212224252324232325242225
:103F7000212221221C1F191B14161E141D1C25276B
:103F800024262322222425232423232525242423F5
:103F90002224242323222224222321201F21202003
:103FA0001E1F1D1D1C1A191B1E1F221C1F21212232
:103FB000241F2123242520221D1E1C1C1F1E211FFF
:103FC0001919201B22201F1F1D211F1D1A1A1F1C1B
:103FD000211F242529282D2728292B2D2F2A23246A
:103FE0002428262424242426262424242226242289
:103FF0002626232825231A1A1D1C1F1D1F1F2221B8
:104000002422242425262725242526292A25252659
:104010002429282321211A221A1A11110F110F0FF6
:104020000E0E100E100F1C1D241C23221F211A20FF
:104030001719191A20171D1F2122221F21202021A4
:104040002121201F1F212120201F1F212120201F6F
:104050002123222221201F21222021201E20151F62
:10406000141316161A161A191C1D1E1C1E1E1E1EAF
:104070001D1D1B1D1D1D1C1B1A1D1C1D1E1B1D1C7B
:104080001D1E1F1E1E1D1E20201F2020212121213C
:104090002121212121212121202021202121212113
:1040A0001F211F1FF2F130F1303026262C262A2A3C
:1040B000282A2828272624262325222124262B25A2
:1040C0002A29282A2729262525272826272624267F
:1040D0002825272625272626252423252324222193
:1040E00021232422232222242523242323242421A0
:1040F00020231F20191D16181718221622202325E9
:10410000232422212325262425242325262425246F
:104110002325232422212123222221201F211F2085
:104120001D1E1B1B1B18181A1D1E221B1F212324BA
:104130002521222422231F201C1E1D1E1E1F201E7F
:104140001C1C201E22201E1E1B201D1B1C1C231E8F
:10415000242325262C28302A2A2B2A302E292223D4
:104160002427262424242426262424242326252305
:104170002828202A22201C1C1B1E1D1B1E1E22203C
:104180002422232324252624232426292A242425E3
:10419000262A2A2422231B231B1B12120F120F0F65
:1041A0000E0F110F100E1D1E221D21201E201C1F80
:1041B000191B1B1C21191E202021231E2322212311
:1041C0002122211F1F2122202120212322222120E0
:1041D0002022222121202022222121201E20171FDF
:1041E00016151515191519191B1B1D1B1D1D1F1F34
:1041F0001C1C1A1C1B1B1C19191D1B1D1D1A1C1B0A
:104200001E1F1E1E1D1C1D1F1F1E1F1F211F2021C4
:104210002021212122212222212120212020202091
:1042200020202020F1F130F1303025262B262B29BB
:10423000282A272A272524262425232225272C2619
:104240002B2A282A282927262628282727262527F3
:10425000272626252325252424232325222421201F
:104260002123232222212123242223222425232324
:1042700021221C1D161B1315181A27192625222466
:1042800024232322222425232423222425232423F8
:1042900023252324222121232322222120222021FD
:1042A0001E1F1B1B1B18181A1D1E221B1F21232437
:1042B0002521222422231E201B1D1E1E1D201F1D02
:1042C0001C1C1F1E211F1B1B1B1D1D1B212124230A
:1042D000262426262B292E2A2D2D2B312E2A232348
:1042E0002527272524242326252324242426262481
:1042F00028281F2A211F1C1C1C1E1E1C1F1F2121B9
:104300002321212123232522232425272824252670
:104310002529282422221B221B1B12120F120F0FE9
:104320000D0E100E0F0F1D1F231E22221F201C20FA
:10433000191B1C1D201A1D1F2122221F2121202292
:10434000232021212022222021202022222121205D
:1043500021232122201F1F21232022211F2117205A
:10436000161516161A161A1A1C1C1E1C1E1E1E1EA8
:104370001D1D1B1D1C1C1B1B1A1C1B1C1E1B1D1C7E
:104380001D1E1E1E1E1D1E1F201F1F1F1F20212041
:104390002020212221212121201F201F2020202018
:1043A00020202020F1F231F2313225262B262D2932
:1043B000292B282C292625272627252427292D287F
:1043C0002C2B262828272726272927282625272972
:1043D0002628252422242523242324262525242396
:1043E0002123232222212325262425242325212499
:1043F000201F181A141A13121A1C271B26252325EE
:10440000242423222224262325242325262425246C
:104410002224222321202224242323222022212279
:104420001F201B1C1B19181A1D1E221B1F212223B3
:104430002620232524251D211B1C1E1F1B201D1B80
:104440001D1D1E1F201E18181C1A1E1C2323242588
:10445000262428282A2A2C2B2C2C282E2A282424CF
:1044600024252624242425262725262628282A28EC
:1044700025251D271F1D1D1D1E1F201E2020222239
:1044800024222121212323212222232425232626FD
:104490002527272522221D231D1D13130F130F0F60
:1044A0000D0D0F0D10101D1D221D23231F1F1A1F80
:1044B00017191C1D201A1D1F222322201F22212212
:1044C000231F20222223221F20211F2221212020DE
:1044D0002022222121201F212220212020221921D7
:1044E00018171616191619191C1C1E1C1E1E1D1D28
:1044F0001D1E1D1D1D1D1B1D1B1B1C1C1D1C1D1DF4
:104500001E1D1D1E1F1F1F1E201F1E1E1D1F221EC3
:10451000211F21232022201F211F211F2121202094
:1045200021202121F2F232F2323325262C262D2AA7
:10453000292B2A2C2B28262828292726282A2C29EB
:104540002B2A2729282827262628282727262628F1
:104550002727262524262525242322242523242312
:10456000202223212221222425232423232522241F
:104570002120161813171211232526242524212360
:1045800025222423222424232322222425232423F6
:1045900023252324222121232522242322242123ED
:1045A0001F201A1B1A1817191D1E221B1F21242534
:1045B0002722242622231E201C1D20201A221C1AFA
:1045C0001E1E1A201C1A15151F17211F242425260C
:1045D000272528282A2A2C2A2E2E2630282625254B
:1045E0002327252323232725292728282B2A2D2B5A
:1045F00024241C261E1C1D1D1D1F1F1D1F1F2221C4
:104600002421212120232220202021222321232391
:104610002626282623231E241E1E13130F130F0FD6
:104620000E0E0F0E0F0F1B1B221B22221E1E1B1D08
:10463000181A1D1E211B1E202122231F2022222387
:1046400022201F212425232221222022232122214E
:10465000202222212120212320221F1E1F211C2055
:104660001B1A1415171417171B1B1C1B1C1C1D1DB4
:104670001C1D1C1C1D1D1D1D1D1D1D1D1D1D1D1D6D
:104680001D1E1E1E1E1E1E1F201F1F1F1E20211F3F
:10469000201F202221212120202020202020212114
:1046A00020212020F0F030F0303026272D272E2B2F
:1046B000292B2C2C2D2A292B2C2B2B2A2A2C2A2B4C
:1046C000292825272726262526282927282725277C
:1046D000262625242325242423222224242323229E
:1046E00022242423232221232422232221242023A1
:1046F0001F1E1416171516152325252424232325DC
:10470000262425242325222421202022232223217C
:10471000232524242322212324222322222421236B
:104720001F20191A1A1717191E1F231C20222424B0
:10473000252122241F201D1D1A1C1D1E1A1F1C1A94
:104740001E1E172019171919221B2422252525277B
:104750002725262628282A282F2F263128262424D4
:104760002626282624242626282627272B292D2BD3
:1047700022221C241E1C1C1C1E1E1F1D201F222149
:10478000232221211F23211F1F1F2021222022221B
:104790002424262424241F241F1F14140F140E0E57
:1047A0000E0E0E0E0F0E1B1B221B22221C1C1B1B8F
:1047B000171A1F20221D1E212223211F1E20222303
:1047C00022201F212121221E2021212424232322D3
:1047D00021232122201F21232222212020221F21C8
:1047E0001E1D1516161516161A1A1B1A1B1B1C1C35
:1047F0001B1C1B1B1B1B1B1B1B1B1C1C1F1C1F1FF9
:104800001E1D1D1E1D1F1F1E1F1E1E1E1D21201EC4
:104810001F1E1E21212021201F2021202121222294
:1048200021222121F1F132F1323227282D282D2B9E
:10483000282A2C2B2D2A2B2D2B2D2A29292B2B2ACC
:104840002A292628282727262729272826252628F3
:104850002827272624262525242323252524242309
:1048600024262525242322242423232222241D2216
:104870001C1B12141E131D1C25272426232223254E
:1048800026242424232523232222222424222222F4
:1048900021232320222122242523242322242123EF
:1048A0001F201A1B1B18181A2021231E2122232423
:1048B000252222241F201D1D1B1C1C1C1B1D1D1B13
:1048C0001D1D141F16141C1C251E272525252427F5
:1048D0002624262629282B292929252B2725252565
:1048E00027272927252528272A2828282B2A2D2B42
:1048F00020201E22201E1E1E1E20201E20202222BE
:1049000024212122202422201E1E1F20211F21219C
:104910002323252323231E231E1E14140F140F0FDD
:104920000D0D0F0D0E0F1A1A211A21211D1D1B1D11
:10493000181A1E20221D1F20212222201F21202183
:10494000211D1E202223231F212121242323222154
:1049500021232222212020222121201F21231F2246
:104960001E1D14141614161619191C191C1C1D1DB5
:104970001C1D1C1C1C1C1C1C1C1C1D1D1F1D1E1E6C
:104980001D1E1E1E1E1E1F1F201F1F1F1E20211F3B
:10499000201F1F222121212020202120212121210F
:1049A00021212121F3F333F3333327282D272D2B16
:1049B000292B2C2A2C2A2A2C2A2B2928282A2A2956
:1049C0002928292B292A282725272D262C2B2C2E50
:1049D000272D262524262725262524262625252479
:1049E00022242523242322242423232221231B20A1
:1049F000181A1516251322232627252422242223BC
:104A00002420222323241D221C1E1F1E1F1C1A1FAC
:104A10002022221A2020222427232625232522246F
:104A200020211B1C1D191A1C2021231E2022222498
:104A3000242223221D1F1E1E1D1C1B1B1D1D1F1D8E
:104A40001B1B131D15132121272329272626222866
:104A500024222424262628262626262828262525FC
:104A6000252727252525262728262A2A282C2A28CF
:104A700020201F22211F1E1E1F20221E2020212435
:104A800025212122222625211F1F1D211F1D1E1E1B
:104A90002120232123232023202015150E150F0F5D
:104AA0000D0D0F0C0D0F1B1C22191F211C1D1B1B94
:104AB0001A1A1F20221E21212022232020212223F6
:104AC000221F1F21222324202222212424232322C7
:104AD0002123222221201F212220212020222121C6
:104AE000201F16171516151519191D191D1D1D1D29
:104AF0001B1D1B1B1C1C1E1C1E1E1D1E1F1D1F1DE7
:104B00001D1E1F1D1E1E1E20211F201F1E20201FB8
:104B1000201F1F222121211F1F1F211F212122228F
:104B200021222121F2F234F2343427282E282C2C91
:104B30002A2C2D2B2B2B292B2B2A2A2927292928D4
:104B40002827292B2A2A29282527282627262527EA
:104B50002626252424262625252424262525242307
:104B60002224252324232224242323222021181E27
:104B70001517181927162427252624232123232433
:104B800022211F212020211F232322222622252605
:104B900016162115212022242623252422241F2312
:104BA0001D1E1D1E1E1B1B1D1F20221D212121231A
:104BB000232322211C1E201D1F1E1C1C1D1E201E07
:104BC00015151617181624242726292724242326EA
:104BD0002523232325252725262625282725242484
:104BE000252627252525252727252A2A252C27255B
:104BF0001F1F2021222020202021231F1F202124AD
:104C0000252020222326262221211C231E1C1D1D97
:104C1000201F222021212121212116160F160E0EE0
:104C20000D0D0F0C0C0E1C1D231A20221B1C1C1A10
:104C30001B1A1F21231F22211F2122211F20212275
:104C4000221E1F212324252123232225242423223D
:104C5000202223212221202223212221202221213E
:104C6000201F1A1A151A151517171C171C1C1C1CA7
:104C70001C1C1C1C1D1D1F1D1F1F1E1F201E1F1C5A
:104C80001C1F201E1F1D1F21222021201F2121202B
:104C900021201F2221212120201F201F202021210F
:104CA00020212020F2F233F2333328292F292E2D10
:104CB0002C2E2D2D2C2B2A2C2C2B2B2A292B2C2A3D
:104CC0002B2A292B2B2A2A2927292828272624265C
:104CD0002625252425272626252423252524242387
:104CE0002224242323222123232222211E1F171CB6
:104CF00014161F20281D252724252522222424259B
:104D00001F221D1E2E304F2A404A5E6447523A44ED
:104D100018171B121A192426232522211F211F20B0
:104D20001D1E1E1F1F1C1C1E2021241E2223222488
:104D3000222321201B1D1E1C1D1C1B1C1C1D1E1C98
:104D400012121B141D1B2727252927252222222466
:104D500024222323272529272828262A28262626F1
:104D6000272829272626262828262828222A2422DA
:104D70001F1F1F21211F2020202223202021232527
:104D800027222223232826232424202622201B1BFB
:104D90001D1D1F1D20202021202017170F170F0F6A
:104DA0000C0C100B0D0F1B1C231A20221D1E1B1B8D
:104DB0001A191E20221F21202022222120212223F5
:104DC000221F2021232424202222212323232221C5
:104DD00022242423232221232322222121232322AC
:104DE000222118191419141418181C181C1C1D1D24
:104DF0001C1D1C1C1D1D1E1D1E1E1D1F1F1E1E1DDD
:104E00001D1F211E201F1F212120201F1F212120A7
:104E1000201F1F22202021202121202120201F1F90
:104E2000201F2020F3F333F3333328292F282E2D8E
:104E30002D2F2D2E2C2B2A2C2D2B2C2B292B2D2AB4
:104E40002C2B282A2B292A292729282827262628D7
:104E500027272625252728262726252724262322F7
:104E60002224242323222325212420201A1B18183E
:104E70001517252628232527242526222225232405
:104E80002421222350557F4B626F6A7C665B4E580B
:104E90002C31162714142426232522211F222021F9
:104EA0001E1F1D1E1E1B1B1D2021251D2324222508
:104EB000222421201B1D1D1C1C1B1C1C191E1B1920
:104EC00014142316252327272729292722222124C2
:104ED0002321252529272B292929272B292726275F
:104EE000272929272625252827252828212A23215F
:104EF0002020202223202121212324202122252695
:104F000029232223232827222424252627251F1F5F
:104F10001B211D1B1E1E201E20201A1A0F1A0F0FE8
:104F20000C0D100B0C0F1B1D24191F231E1F1A1B09
:104F300019181D1F221E2120212323222122232470
:104F4000221F21212223231F212120222423232247
:104F50002325242423222224232322212022242126
:104F600023221C1C131C131319191D191D1D1D1C94
:104F70001C1C1C1C1E1D1F1E1F1F1E1E1E1F1D1C59
:104F80001D1F221E21202022222121202022222119
:104F900021201E22211F2121222221222121212103
:104FA00021212121F1F135F13535292A2F292E2D05
:104FB0002C2E302D2F2E2C2E2D2D2C2B2B2D2B2C23
:104FC0002A29282A2B292A29292B292A2827262851
:104FD000282727262527272626252628262725246D
:104FE000232525242423232520241F1E18191C16BD
:104FF000191B272826252325242526232424232579
:10500000242324234A507A475A67617766544D53C4
:1050100021291D211A1B2526232421222022201F7D
:105020001D1F1F201F1D1C1E2122251F222423247B
:1050300020221F1E191B1D1B1E1C1D1D151F1715B1
:105040001717261928262626232825232020212243
:105050002321272729292B292A2A272C28272727D4
:10506000282A2A2724292722262522231F26231DF2
:105070002023222523202220202525222223252506
:1050800027242525222825222121222324222222E9
:105090001C241E1C1B1B1F1C1F1F1A1A121A121263
:1050A00011120E110D0E1C1C231B22221D1E1C1D75
:1050B0001B1A1E20221F21202123222220212223ED
:1050C00023202122232424202223212322222120C1
:1050D00021232322222122242423232220222421AB
:1050E00023221D1E131E121117191D181D1C1D1E13
:1050F0001E1D1E1D1D1F1F1E1E1D1E1F201F1F1ECD
:105100001E20211F201F1F212120201F1F212220A0
:1051100021201F22222021201F2122202120212383
:1051200022222120F0F035F035352B2C312C302F78
:105130002E302F2F2E2D2D2F2E2E2D2C2C2E2C2D94
:105140002B2A292B292A2827282A292928272729D1
:1051500029282827262826272524262827272625E4
:1051600023252424232222241E231D1C181924163F
:1051700021232627262423252425252425232324EB
:1051800024232322222547223C3F3D47233A1C1D4E
:105190001D1B25202324232322201F212122211E01
:1051A0001E202021201E1D1F2122262023252324EE
:1051B0001D211C1B181A1E1A1F1C1B1C121D141249
:1051C0001C1C251E272526262028222020202522BB
:1051D00027252A2A282C2A2826262428262424245F
:1051E000242524232123232424201D261F1C1719B2
:1051F0001F1F221F24201E252520201F222124249A
:10520000252425252327252320202122232122226E
:105210001D241F1D1A1A1D1A1D1D181814181414E8
:1052200012120D120D0D1A1A231B23231D1E1D1DF4
:105230001C1B21232122201F212321221F20232464
:105240002421212323242621242420232222212037
:10525000222423232221202223212221212324222C
:1052600023221E20151F141315181D171C1B1C1F8D
:10527000201E1F1E1D1F1E1E1D1C1D1F211E201F48
:105280001F21222021202022222121201F21212014
:10529000201F20212121201F1E20211F201F20220E
:1052A0002121201FF2F235F235362A2B322B3130F4
:1052B0002E302F2F2E2D2C2E2D2D2C2B2C2E2D2D18
:1052C0002C2B2A2C2A2B292827292A282928272948
:1052D000282827262527262625242527272626256C
:1052E00022242323222120221B211A191A1C2919C6
:1052F0002628262725242224242625242423232562
:105300002524242323242224221F1F24251F222571
:105310002422242322242223232020222122201F6E
:105320001D1F2021201E1D1F22232620232522246D
:105330001C211B1A191B1F1B201D1A1A121C1412C8
:105340002020262228262424202621202424282622
:105350002A282929272B29272525242726242223E3
:1053600021221E20211C2B282222294338211C21E6
:105370001D271D20231E1F1E201F1E1F202021222F
:10538000232122222324252321211F23211F212100
:10539000202322201A1A191A19191515161516166E
:1053A00011110D110D0D1919211921211D1E1D1E7F
:1053B0001C1A2022222121202022222120212324E4
:1053C00023202022232324202222212322222120C1
:1053D00022242323222120222221212020222321B2
:1053E00022211F211620151417191E181D1C1D1F00
:1053F0001F1E1E1D1E1F201F1F1E1E20211F201FBF
:105400001F212120201F1F212120201F2022222197
:10541000212020222221212020222221212021227C
:1054200022222120F3F336F335362B2C332C323164
:105430002F3130302F2E2C2E2E2D2D2C2C2E2E2D8C
:105440002D2C2B2D2B2C2A29292B2B2A2A292628B7
:1054500027272625262826272524242624252322F7
:105460002224242323221C1E181D17161F20271D4B
:1054700024262526262323252527262525242325DE
:1054800025242523232525242224252626222023DE
:105490002125251D222423242421212320211F1EF0
:1054A0001C1E1F20211D1E202425242221232223EF
:1054B00019211817181B1F1A201D1717151A171551
:1054C000232325252725202021222321262627289E
:1054D0002A27262624282624222321252422212384
:1054E00021222122201E5B24333F446A50352A2D7D
:1054F00029483C25242921221D1D22211F201D2150
:105500001F1D201F222323212121202322201F1F92
:105510001D211F1D17171617161615151815181803
:1055200012110C120C0D1A19201920201E1F1C1FFD
:105530001B1A1E20221F21201F212220212123246B
:1055400022211F212224232121222022242223223E
:105550002426222622202022222121201F2123202E
:10556000222120221621151417191E181D1C1E2079
:105570001E1F1D1C1D1F211E201F1F212220212038
:105580001F212120201F1F21222021201F21222016
:1055900021202022222121202123232222212123F4
:1055A00023222221F3F335F336362B2C332C3231E0
:1055B0002F312F302E2D2D2F302E2F2E2D2F2D2E03
:1055C0002C2B2A2C2C2B2B2A2A2C2B2B2A29272933
:1055D000272826252527272626252527252624236F
:1055E0002325242423221A1C161B151425262624C1
:1055F000232524252522222526272825262625275A
:1056000027252524252624242326242320231F2060
:105610002325272224262425242221232122201F5A
:105620001D1F1F20221D1F21232423212022212270
:10563000172116151A1B1E1B1F1D151617171817D5
:105640002424222523221D1D251F26252929272A1A
:105650002928232622252321231D2422232126290C
:105660001F28232333419530586B5A886E493B4796
:105670003C666E2D3546415F2E331C1F23202426A9
:1056800023231B221C1B1F1E1F1F212022211F1F23
:1056900019211A1912121412141415151A151A1A9E
:1056A00011120D110D0C191A221A21211D1E1D1E79
:1056B0001C1A1E20231F22212022232121222223E3
:1056C00023202022222324202222222424222222B8
:1056D00021232321212120232222212020222221B3
:1056E000212022241923181716181F171E1D1E20EB
:1056F0001F1F1E1D1E20211F201F1E20211F201FB7
:105700001F212120201F1F212120201F2022222194
:105710002120202222212120202222212120212378
:1057200022222120F3F336F336362C2D342D33325A
:10573000303230312F2E2F313130302F2D2F2F2E70
:105740002E2D2C2E2E2D2D2C292B2A2A2928282AA5
:1057500028292726262827272625232527242625E6
:10576000242623252221161819171817292A262737
:1057700023252324252122242526262323252627E5
:1057800029242628282928262527222320201D1FD2
:1057900026272824252726272524222422232120C2
:1057A0001E202122241F21232425222220221E1DE7
:1057B000121E12121C1B1C1B1C1C17171B161B1B5A
:1057C00023231E231E1E20202720262726262326AD
:1057D000232420222321221F212525232725231CA2
:1057E00024231B1F6A8FAB60697B6E9F935C5161A2
:1057F0005788874846576393804F455527371F255D
:10580000251F21261D231B1D1D1D1E1D1E1E2020A4
:10581000181F18181010121012121212191219193A
:1058200012130F120E0C1719231922211D1F1D1EF2
:105830001C1B1D1F241E2322222425232224232453
:105840002521222423242421212324252422212329
:105850002223231F2021212423232221212321222B
:10586000201F22241A23191815171F161E1D1D1F6D
:10587000201E1F1E1F21222021201E20211F201F2D
:10588000202220211F1E1F212120201F2123212211
:10589000201F2123232222212123232222212022EF
:1058A00023212221F2F239F239392D2E342E3332CE
:1058B0002F313230313030323131302F2D2F2E2EEA
:1058C0002D2C2E302F2F2E2D292B2B2A2A29292B18
:1058D0002A2A29282729272826252426262525245B
:1058E00022242223212013161F151E1D292A2427B6
:1058F000212323242522222424252522222426276D
:10590000282425272627262423252425242221234D
:10591000252627232426252624232123222321204C
:105920001E202021231E20222324232121221A1A73
:105930000E1A0E0E1C1C181C181815151D151D1DF1
:1059400023231D231D1D24242424242421211F213D
:105950001E1E201C2220241F202719231A1D232A43
:10596000811D536085B5B073697F80ADAA6B657882
:1059700070A4A05C576C689EA6535A7365944257F6
:105980002A2B1D18211923211C1D1D1C1D1D1D1D29
:105990001A1D1A1A0F0F0F0F0F0F0F0F180F1817CE
:1059A00014150F140E0D16182117201F1E201C1F72
:1059B0001B1A1E20231F22212123252222242223D9
:1059C000242021232324232120222122231F2022BB
:1059D00023242320212220232222212020222221AD
:1059E000212021231C221B1A161820171F1E1E20DF
:1059F0001F1F1E1D1E20221F21201F2122202120AB
:105A000020222121201F2022222121202022222188
:105A10002120202222212120202223212221212372
:105A200023222221F2F239F2393A2F30342F333245
:105A30003032323131303032323131302F31313059
:105A4000302F2D2F2E2E2D2C2B2D2C2C2B2A282A8F
:105A500029292827262826272524232523242221EF
:105A600023252124201F181A251924232729252618
:105A700021242425272224262627252423252425DE
:105A800025222224242527222426262726242325CE
:105A900026272624232523242521222423242121CB
:105AA0001E202021241E21232223242022231717F5
:105AB0000F170F0F1E1E121E121213131E131E1E7F
:105AC00021211F211F1F23231E231E1E1D1D1E1CDF
:105AD0001E1E1A1D1A1D201E27206422454D76A663
