:020000040800F2
:1000000000000120C5020008CB020008CF02000852
:1000100041030008450300088D03000800000000AC
:10002000000000000000000000000000D5030008F0
:10003000D903000800000000DD030008C513000814
:10004000F1030008F1030008F1030008F1030008C0
:10005000F1030008F10300083510000855100008EE
:10006000F1030008F1030008F1030008F1030008A0
:10007000F1030008F1030008F1030008F103000890
:10008000F1030008F1030008F1030008000000007C
:10009000000000000000000000000000F103000864
:1000A000F1030008F1030008F1030008F103000860
:1000B000F1030008F1030008F1030008F103000850
:1000C000F1030008F1030008F1030008F103000840
:1000D000F1030008F1030008F1030008000000002C
:1000E000F1030008F1030008F1030008000000001C
:1000F000000000000000000000000000F103000804
:1001000000000000F1030008F1030008F1030008FB
:1001100000000000000000000000000000000000DF
:10012000F1030008F1030008F1030008F1030008DF
:10013000F1030008000000000000000000000000C3
:10014000000000000000000000000000F1030008B3
:10015000F1030008F1030008F1030008F1030008AF
:10016000F1030008F1030008000000000000000097
:10017000000000000000000000000000000000007F
:1001800000000000F1030008000000000000000073
:10019000F103000800B583B000F046FE384B394A41
:1001A0001360394A1360394900E02146384B9942BF
:1001B0000BD20A684B6801F10C0488689842F4D9A4
:1001C0001168196004330432F8E72E4B1A68314B7A
:1001D0009A4200D0FEE72C4B1A682F4B9A42F9D175
:1001E000274B2E4A13602E4A13602E4B05E0002049
:1001F000106004329342FAD80B462B4A934204D241
:10020000194651F8082B5B68F4E7244B1B6813B9B7
:10021000234B1B6803B1FEE701F056F9694601A8BC
:1002200000F094FD214C224BE41AA4100025AC42AE
:1002300014DC204C204BE41AA4100025AC4213DC43
:100240000099019801F048F905461C4C1C4BE41A32
:10025000A410002C0EDC284600F04AFD144B53F885
:10026000253098470135E2E7134B53F8253098477E
:100270000135E3E7013C124B53F824309847E8E797
:10028000BABADECA0000002074000020F40300089F
:100290000C04000878563412325476987800002006
:1002A000580100200C0400081C0400081C0400086D
:1002B0001C0400081C0400081C0400081C0400089E
:1002C0001C04000808B5FFF765FF00BEFEE71EF03E
:1002D000040F0CBFEFF30880EFF309807146414A29
:1002E00010472DE9F04182B004468846124B5E6B00
:1002F0009F6B9D6A1B6B13F0020F03D00E4BDB6AE2
:10030000002B0CDB0D4800F033FDCDF800803B46A0
:1003100032462946204600F093FD00BEFEE74BF62C
:10032000AB6100F007FE0028ECD0034B4FF0004219
:10033000DA6202B0BDE8F08100ED00E0D81F0008ED
:1003400000BEFEE71EF0040F0CBFEFF30880EFF3D2
:1003500009807146244A10472DE9F04182B00446D5
:100360008846084B5E6B9F6B9D6A074800F000FD56
:10037000CDF800803B4632462946204600F060FD1D
:1003800000BEFEE700ED00E0E81F00081EF0040FCD
:100390000CBFEFF30880EFF309807146134A104752
:1003A0002DE9F04182B004468846084B5E6B9F6B96
:1003B0009D6A074800F0DCFCCDF800803B463246E1
:1003C0002946204600F03CFD00BEFEE700ED00E0BF
:1003D000F41F000800BEFEE700BEFEE700BEFEE719
:1003E00070470000E302000859030008A103000859
:0403F00000BEFEE766
:1003F4006020000800000020780000206020000831
:100404000000001000000010780000205C010020B3
:080414000000001000000010C0
:1004200010B50446074B1868074BA3FB0030800942
:1004300000F090F8002221464FF0FF3000F044F821
:10044000002010BD0C000020D34D621008B50B4BEE
:100450001A6842F400721A601A6842F480621A60E4
:100460001A6842F480721A60032000F00FF80F201F
:10047000FFF7D6FF01F046F8002008BD003C02401F
:10048000014B1868704700BF4C01002010B50446AE
:10049000C31E042B0FD80A4AD36823F4E0631B045D
:1004A0001B0C240204F4E064234343F0BF6343F4D1
:1004B0000033D36010BDA421024800F04FFCEAE7EE
:1004C00000ED00E0081E000870B505460C46164613
:1004D0000F2A25D80F2C28D81B4BDB68C3F3022327
:1004E000C3F10702042A28BF0422191D062921D9B5
:1004F000033B4FF0FF3101FA02F224EA02049C4070
:1005000001FA03F326EA03063443002D14DB240129
:10051000E4B205F1604505F5614585F8004370BD1D
:10052000BC210A4800F01AFCD4E7BD21074800F0BE
:1005300015FCD1E70023DCE705F00F052401E4B248
:10054000034B5C55EBE700BF00ED00E0081E000820
:1005500014ED00E00138B0F1807F0AD2064B5860FC
:10056000064AF02182F823100020986007221A60C2
:1005700070470120704700BF10E000E000ED00E090
:1005800010B50446042800D038B9042C0BD0094A11
:10059000136823F00403136010BD40F2B311064842
:1005A00000F0DCFBF1E7034A136843F00403136037
:1005B000F2E700BF10E000E0081E000830B583B08D
:1005C000044603680F2B29D8236813F0010F3DD090
:1005D0006368012B01D9052B25D1A34B9B6803F040
:1005E0000C03042B29D0A04B9B6803F00C03082BB1
:1005F0001ED022799D4B1A706368002B50D0FFF7F4
:100600003FFF0546984B1B6813F4003F1ED1FFF7D0
:1006100037FF401B6428F5D90320E3E1F521944816
:1006200000F09CFBD0E7FA21914800F097FBD4E75B
:100630008D4B5B6813F4800FDBD08B4B1B6813F47E
:10064000003F03D06368002B00F0C981236813F0DA
:10065000020F5DD0E368012B31D823691F2B34D8FA
:10066000814B9B6813F00C0F3AD07F4B9B6803F0D3
:100670000C03082B2FD0E368002B74D07D4B012294
:100680001A60FFF7FDFE0546774B1B6813F0020F5B
:100690005AD1FFF7F5FE401B0228F5D90320A1E14E
:1006A000FFF7EEFE0546704B1B6813F4003FCDD0FC
:1006B000FFF7E6FE401B6428F5D9032092E14FF4D2
:1006C00096716B4800F04AFBC7E740F22D1168486D
:1006D00000F044FBC4E7644B5B6813F4800FCAD19D
:1006E000614B1B6813F0020F04D0E368012B01D0AB
:1006F000012077E15C48036823F0F8032169F822C0
:1007000092FAA2F2B2FA82F201FA02F21343036001
:10071000236813F0080F50D06369012B35D8636943
:10072000002B38D0544B01221A60FFF7A9FE054672
:100730004D4B5B6F13F0020F3FD1FFF7A1FE401B43
:100740000228F5D903204DE14748036823F0F80358
:100750002169F82292FAA2F2B2FA82F201FA02F2C6
:1007600013430360D4E7434B00221A60FFF788FE6F
:1007700005463D4B1B6813F0020FC9D0FFF780FE02
:10078000401B0228F5D903202CE140F26D113848B6
:1007900000F0E4FAC3E7384B00221A60FFF770FE5E
:1007A0000546314B5B6F13F0020F06D0FFF768FE72
:1007B000401B0228F5D9032014E1236813F0040F2D
:1007C00060D0A368012B01D9052B1FD10023019311
:1007D000254B1A6C42F080521A641B6C03F0805354
:1007E0000193019B254A136843F480731360FFF75C
:1007F00047FE0546214B1B6813F4807F0CD1FFF7A1
:100800003FFE401B0228F5D90320EBE040F2971190
:10081000174800F0A3FAD9E7227A194B1A70A36897
:1008200083B1FFF72DFE05460F4B1B6F13F0020F30
:1008300028D1FFF725FE401B41F288339842F3D9B7
:100840000320CFE0FFF71CFE0546074B1B6F13F09C
:10085000020F17D0FFF714FE401B41F28833984275
:10086000F3D90320BEE000BF003802400238024046
:100870004C1E000800004742800E474200700040B6
:1008800070380240A369022B39D8A369002B00F00D
:10089000A880564A926802F00C02082A00F0A48050
:1008A000022B40F08880E36913B1B3F5800F2CD19F
:1008B000236A3F2B2FD8636A323BB3F5BF7F30D812
:1008C000A36A022B05D0042B03D0062B01D0082BE2
:1008D0002DD1E36A043B0B2B2FD8454B00221A6025
:1008E000FFF7CEFD0546414B1B6813F0007F2AD071
:1008F000FFF7C6FD401B0228F5D9032072E04FF434
:10090000E6713C4800F02AFABFE740F2D5113948B9
:1009100000F024FACCE74FF4EB71364800F01EFAF1
:10092000C9E740F2D711334800F018FAC8E74FF48E
:10093000EC71304800F012FACBE740F2D9112D48A3
:1009400000F00CFAC9E7E369226A1343616A47F6CB
:10095000C07292FAA2F2B2FA82F201FA02F21343E0
:10096000A26A5208013A4FF4403191FAA1F1B1FA6A
:1009700081F18A401343E16A4FF0706292FAA2F269
:10098000B2FA82F201FA02F21343184A5360184B8A
:1009900001221A60FFF774FD0446144B1B6813F024
:1009A000007F06D1FFF76CFD001B0228F5D903205C
:1009B00018E0002016E00E4B00221A60FFF760FDE1
:1009C00004460A4B1B6813F0007F06D0FFF758FD62
:1009D000001B0228F5D9032004E0002002E00120DA
:1009E00000E0002003B030BD0120FBE700380240EA
:1009F000600047424C1E0008214B9B6803F00C032B
:100A0000042B3AD0082B01D01E4870471C4B586865
:100A100000F03F005B6813F4800F1ED01A4AB2FB4F
:100A2000F0F2174B586847F6C073184093FAA3F3D7
:100A3000B3FA83F3D84000FB02F0114B5B6803F478
:100A400040334FF4403292FAA2F2B2FA82F2D3402B
:100A500001335B00B0FBF3F070470A4AB2FBF0F2DF
:100A6000074B586847F6C073184093FAA3F3B3FADC
:100A700083F3D84000FB02F0DFE70348704700BF74
:100A8000003802400024F40040787D0170B504462F
:100A90000D460368013B0E2B11D8072D15D88C4B42
:100AA0001B6803F00F03AB4215D2EBB2884A1370F8
:100AB000136803F00F03AB420DD0012070BD40F26C
:100AC0003721844800F04AF9E7E74FF40E71814876
:100AD00000F044F9E3E7236813F0020F18D0A3688D
:100AE0007BB1802B0DD0902B0BD0A02B09D0B02B3D
:100AF00007D0C02B05D0D02B03D0E02B01D0F02B9A
:100B000037D1754A936823F0F003A1680B439360D3
:100B1000236813F0010F73D06368032B2FD8636829
:100B2000012B32D09A1E012A36D96B4A126812F074
:100B3000020F00F0CA8068498A6822F0030213435A
:100B40008B60FFF79DFC06466368012B2BD0022BC0
:100B500038D0032B45D0604B9B6813F00C0F4FD05F
:100B6000FFF78EFC801B41F288339842F3D90320B3
:100B7000A4E740F24F21574800F0F0F8C1E740F2F7
:100B80005621544800F0EAF8C9E7534A126812F4B3
:100B9000003FD0D1012091E74F4A126812F0007F48
:100BA000C9D101208AE74C4B9B6803F00C03042B4E
:100BB00026D0FFF765FC801B41F288339842F2D9BA
:100BC00003207BE7444B9B6803F00C03082B17D0F2
:100BD000FFF756FC801B41F288339842F2D903207C
:100BE0006CE73D4B9B6803F00C030C2B08D0FFF720
:100BF00047FC801B41F288339842F2D903205DE71D
:100C0000334B1B6803F00F03AB4209D9EAB2304BF8
:100C10001A701B6803F00F03AB4201D001204DE7AF
:100C2000236813F0040F14D0E3685BB1B3F5805F61
:100C300008D0B3F5A05F05D0B3F5C05F02D0B3F51F
:100C4000E05F36D1244A936823F4E053E1680B4314
:100C50009360236813F0080F15D023695BB1B3F5D7
:100C6000805F08D0B3F5A05F05D0B3F5C05F02D0B8
:100C7000B3F5E05F23D1184A936823F460432169F8
:100C800043EAC1039360FFF7B7FE134B9B6803F081
:100C9000F003F02292FAA2F2B2FA82F2D3400F4AA3
:100CA000D35CD8400E4B18600F20FFF7B9FB002033
:100CB00004E74FF42D71074800F050F8C2E740F206
:100CC000BB21044800F04AF8D5E70120F6E600BF52
:100CD000003C02404C1E0008003802403C1E000848
:100CE0000C000020014B1868704700BF0C0000206A
:100CF000FEE7000008B5034800F052F80120FFF7B6
:100D0000F7FF00BF7C1E000808B503460C4A1268B6
:100D10005AB10B4A1068033323F003030344094A12
:100D2000934206D8064A136008BD054A0649116079
:100D3000EFE700F0E9FB0C2303604FF0FF30F3E72F
:100D40007C00002000FC00205C01002001230360E7
:100D5000014B0B60704700BF0400002008B50A4635
:100D60000146024800F004F8FFF7C4FF901E000897
:100D70000FB400B583B004AB53F8042B019380216A
:100D8000064800F0FBFB002803DD0146034800F0A5
:100D900047F803B05DF804EB04B07047840000200E
:100DA00010B5044600F0B6FB0146204600F038F8C6
:100DB0000121024800F034F810BD00BF541F0008A4
:100DC0002DE9F04385B004460F4643560BB10E465D
:100DD0001EE0042528462146ABBE0446384605B031
:100DE000BDE8F08314F9011B04AA1A4402F8101C90
:100DF0000133AB42F6D304AA1344002203F8102CAB
:100E00004FF00408E94640464946ABBE8046761B93
:100E1000002EE3D03546102E28BF10250023E8E72A
:100E200008B5FFF7CDFF08BD08B500F093F8024AFA
:100E3000024B9A6008BD00BF0000000800ED00E012
:100E4000F8B504460D4617461E462748FFF790FFA3
:100E500021682648FFF78CFF61682548FFF788FF67
:100E6000A1682448FFF784FFE1682348FFF780FF6B
:100E700021692248FFF77CFF61692148FFF778FF6D
:100E8000A1692048FFF774FFE1691F48FFF770FF71
:100E90001E48FFF76DFF29461D48FFF769FF1D4CEF
:100EA000E16A1D48FFF764FF216B1C48FFF760FFF4
:100EB000E16B1B48FFF75CFF15F0800F0AD115F4BA
:100EC000004F0CD11748FFF753FF06991648FFF75C
:100ED0004FFFF8BD39461548FFF74AFFEFE73146A7
:100EE0001348FFF745FFEDE7BC1E0008CC1E0008C5
:100EF000DC1E0008EC1E0008FC1E00080C1F000889
:100F00001C1F00082C1F00083C1F00084C1F000875
:100F1000581F000800ED00E0681F0008781F000857
:100F2000881F0008B81F0008C01F0008981F00088D
:100F3000A81F000883691A888A4201D000207047E0
:100F40000268033A012A03D8023383610120704703
:100F5000002070470C4B1A6842F001021A60002111
:100F600099601A6822F0847222F480321A60074A6B
:100F70005A601A6822F480221A60D960044B4FF03C
:100F800000629A60704700BF0038024010300024B1
:100F900000ED00E0224B9B6803F00C03042B14D0FF
:100FA000082B16D01BB11F4B1F4A1A6002E01D4BC5
:100FB0001D4A1A601A4B9B68C3F303131B4AD15C8A
:100FC000184A1368CB4013607047164B184A1A60D2
:100FD000F0E7134B5A685B6803F03F0312F4800F8D
:100FE00013D0134AB2FBF3F20D4B5B68C3F38813C3
:100FF00003FB02F30A4A5268C2F301420132520073
:10100000B3FBF2F3074A1360D4E7074AB2FBF3F2EB
:10101000034B5B68C3F3881303FB02F3EAE700BFEB
:10102000003802400C0000200024F40004200008D6
:1010300040787D0108B5054B1B6803B19847044A09
:10104000536943F00103536108BD00BF0401002050
:10105000003C014008B5054B5B6803B19847044A62
:10106000536943F00103536108BD00BF0401002030
:10107000003C0140012828D010B102284AD0704716
:10108000032A6BD8DFE802F002060F18344B1A6807
:101090001A607047324803684900012202FA01F1E0
:1010A0000B43036070472E4803684900022202FA8E
:1010B00001F10B430360704729480368490003228C
:1010C00002FA01F10B4303607047032A46D8DFE8B8
:1010D00002F002060F18234B1A681A607047214865
:1010E00003684900012202FA01F10B4303607047D3
:1010F0001C4803684900022202FA01F10B43036015
:101100007047184803684900032202FA01F10B43B3
:1011100003607047032A21D8DFE802F002060F18A7
:10112000114B1A681A6070470F4803684900012282
:1011300002FA01F10B43036070470B480368490052
:10114000022202FA01F10B4303607047064803686C
:101150004900032202FA01F119430160704700BF00
:10116000000002400004024000080240012816D09E
:1011700010B1022826D0704742B1012A34D11B4851
:10118000036802FA01F119430160704717480368C8
:10119000012202FA01F123EA01010160704742B124
:1011A000012A21D11248036802FA01F119430160B2
:1011B00070470F480368012202FA01F123EA010196
:1011C0000160704742B1012A0ED10A48036802FA51
:1011D00001F119430160704706480368012202FAD1
:1011E00001F123EA01010160704700BF14000240D1
:1011F000140402401408024008B5012200211046E0
:10120000FFF7B4FF012211461046FFF7AFFF01229E
:1012100002211046FFF7AAFF012203211046FFF723
:10122000A5FF012204211046FFF7A0FF012205219E
:101230001046FFF79BFF012206211046FFF796FF9D
:10124000012207211046FFF791FF08BD08B50122D2
:1012500000210846FFF70EFF012211460020FFF78C
:1012600009FF012202210020FFF704FF01220321D0
:101270000020FFF7FFFE012204210020FFF7FAFE05
:10128000012205210020FFF7F5FE012206210020A2
:10129000FFF7F0FE012207210020FFF7EBFE0122FD
:1012A00000211046FFF7E6FE012211461046FFF727
:1012B000E1FE012202211046FFF7DCFE012203219C
:1012C0001046FFF7D7FE012204211046FFF7D2FE99
:1012D000012205211046FFF7CDFE0122062110460E
:1012E000FFF7C8FE012207211046FFF7C3FEFFF7F4
:1012F00083FF08BD70B50646002518E0725D2241E7
:1013000002F001020D4B195D0020FFF72FFF0134A1
:10131000E4B2072CF2D90022094B595D0120FFF7F6
:1013200025FF4FF4FA6000F073F80135EDB2072D98
:1013300003D8FFF761FF0024EBE770BD1C20000815
:10134000142000080A4B1A6842F001021A609A68D9
:1013500022F001029A609A6822F002029A609A686A
:1013600022F0F0029A609A6842F080029A60704718
:1013700000380240032822D8DFE800F0020A121ADF
:101380000F48036B012202FA01F119430163704710
:101390000B48436B012202FA01F119434163704784
:1013A0000748036C012202FA01F1194301647047F6
:1013B0000348436C012202FA01F11943416470476A
:1013C0000038024008B5024B1B68984708BD00BFB3
:1013D00054010020064B1A6822F004021A601A68B1
:1013E00022F002021A601A6842F001021A60704785
:1013F00010E000E00138044B1860044A136843F021
:1014000001031360704700BF14E000E010E000E04B
:1014100008B5FFF7EFFF044B1B6813F4803FFAD0C9
:10142000024B00221A6008BD10E000E018E000E066
:1014300070B594B000240194204B1A6C42F0805295
:101440001A641B6C03F080530193019B02941C4BA4
:101450001A6842F440421A601B6803F44043029346
:10146000029B0123089309934FF480030F931923E0
:1014700010934FF4A8731193042612960723139325
:1014800002250E9508A8FFF799F80F2303930495FA
:1014900005944FF4805306930794294603A8FFF759
:1014A000F5FAFFF71FFC074BA3FB00308009FFF79D
:1014B00051F83046FFF764F814B070BD00380240B0
:1014C00000700040D34D621008B5FEF7BFFFFFF774
:1014D000AFFFFFF75FFD08BD08B5FFF733FF002141
:1014E0000846FFF747FF01210020FFF743FFFFF702
:1014F00071FFFFF7ABFE0248FFF7FCFEFBE700BF02
:101500002420000870470000014B1868704700BF96
:1015100010000020034613F8012B002AFBD1181AF3
:101520000138704730B5141E05469BB0184605DAE1
:101530008B232B604FF0FF301BB030BD4FF4027394
:10154000ADF80C3014BF04F1FF332346029305932A
:101550004FF6FF7300910491ADF80E3002461E9BCA
:101560006946284600F072F8431CBCBF8B232B60F1
:10157000002CE1D0009B00221A70DDE707B5009334
:1015800013460A46014603480068FFF7CBFF03B045
:101590005DF804FB100000202DE9F0478E689E42A4
:1015A00082460C469046994637D88A8912F4906F45
:1015B00031D0256809696F1A6569022305EB450575
:1015C00095FBF3F509F101033B449D4238BF1D46ED
:1015D000530530D5294600F07DFB064650B90C2353
:1015E000CAF80030A38943F04003A3814FF0FF30D5
:1015F000BDE8F0873A46216900F0FAFAA38923F49E
:10160000906343F08003A381266165613E44ED1B36
:101610002660A5604E464E4500D94E4632464146AC
:10162000206800F0F0FAA3689B1BA36023681E44A7
:1016300026600020DCE72A4600F0A6FB06460028CC
:10164000E2D12169504600F0F7FAC8E72DE9F04FE2
:101650009DB0804603938B891D060C4616460FD518
:101660000B696BB9402100F035FB2060206128B97F
:101670000C23C8F800304FF0FF30C7E0402363610F
:101680000023099320238DF8293030238DF82A3048
:101690004FF0010B37463D4615F8013B0BB1252BAA
:1016A0003ED1B7EB060A0BD05346324621464046A0
:1016B000FFF772FF013000F0A480099B53440993A7
:1016C0003B78002B00F09D8000234FF0FF32CDE9E6
:1016D0000523049307938DF853301A932F46052260
:1016E00017F8011B4F4800F033FA049BD0B9D90614
:1016F00044BF20228DF853201A0744BF2B228DF8B7
:1017000053202A782A2A15D0079A2F4600200A2526
:10171000394611F8013B303B092B4DD9B8B10FE0E8
:101720002F46B8E73F4A801A0BFA00F0184304909E
:101730003D46D3E7039A111D12680391002A01DB8D
:10174000079204E0524243F00203079204933B786D
:101750002E2B0CD17B782A2B33D1039B1A1D1B68AF
:101760000392002BB8BF4FF0FF33023705932E4D85
:1017700039780322284600F0EBF938B14023401BAA
:1017800003FA00F0049B0343013704933978274898
:101790008DF8281006227E1C00F0DAF9002838D0D7
:1017A000234B13BB039B073323F007030833039337
:1017B000099B4B4409936DE705FB023201200F465C
:1017C000A6E700230137059319460A25384610F885
:1017D000012B303A092A03D9002BC8D00591C6E75E
:1017E00005FB012101230746F0E703AB00932246E6
:1017F000104B04A94046AFF30080B0F1FF3F814693
:10180000D6D1A3895B063FF536AF09981DB0BDE878
:10181000F08F03AB00932246064B04A9404600F02C
:1018200081F8EAE72C200008322000083620000862
:1018300000000000991500082DE9F04791461F4669
:101840008A680B69DDF820809342B8BF1346C9F857
:10185000003091F8432006460C4612B10133C9F816
:1018600000302368990642BFD9F800300233C9F826
:101870000030256815F0060507D104F1190AE36860
:10188000D9F800209B1AAB4228DC94F84330226838
:10189000003318BF012392062DD404F143023946C8
:1018A0003046C047013020D02368E568D9F80020D1
:1018B00003F00603042B08BFAD1AA36822690CBF0E
:1018C00025EAE57500259342C4BF9B1AED184FF039
:1018D00000091A344D451AD1002008E00123524670
:1018E00039463046C047013003D14FF0FF30BDE8E4
:1018F000F0870135C3E7E1185A1C302081F8430016
:10190000224494F8451082F843100233C5E70123BE
:10191000224639463046C0470130E6D009F1010978
:10192000D8E700002DE9F04301F1430C0C46097E95
:1019300085B06E291746064698460C9A00F0B3808B
:1019400022D8632936D00AD8002900F0B980582956
:1019500000F0838004F1420584F8421032E06429EB
:1019600001D06929F6D120681368050603F1040146
:101970002AD51B681160002B03DA2D225B4284F804
:1019800043206F480A2239E0732900F09D8008D86F
:101990006F2920D07029DDD1236843F02003236014
:1019A00003E0752917D07829D4D1782384F84530FD
:1019B000644855E01368191D1B68116004F1420565
:1019C00084F8423001238CE01B68116010F0400F56
:1019D00018BF1BB2CFE713682568181D10602806D2
:1019E00001D51B6802E06806FBD51B8854486F29A7
:1019F00014BF0A220822002184F843106568A560FC
:101A0000002DC0F29580216821F004012160002B97
:101A10003DD1002D40F08E806546082A0BD1236809
:101A2000DB0708D5236962689A42DEBF302305F8D8
:101A3000013C05F1FF35ACEB05032361CDF80080D7
:101A40003B4603AA21463046FFF7F6FE01304DD152
:101A50004FF0FF3005B0BDE8F083394884F84510F9
:101A6000136821681D1D1B6815600A060BD5CA077F
:101A700044BF41F0200121601BB9226822F02002FE
:101A800022601022B7E74D0648BF9BB2EFE76546DC
:101A9000B3FBF2F102FB1133C35C05F8013D0B46C9
:101AA0000029F5D1B9E7136825686169181D106030
:101AB00028061B6801D5196002E06A06FBD519806B
:101AC000002323616546B9E71368191D11601D687D
:101AD00062680021284600F03BF808B1401B6060B6
:101AE00063682361002384F84330A7E723692A460B
:101AF00039463046C0470130AAD023689B0713D42B
:101B0000E068039B9842B8BF1846A3E701234A4602
:101B100039463046C04701309AD00135E368039A10
:101B20009B1AAB42F2DCEBE7002504F11909F5E75B
:101B3000002BACD1037884F8423004F142056CE705
:101B40003D2000084E2000080000000000000000BA
:101B500001F0FF01102A2BDB10F0070F08D010F85E
:101B6000013B013A8B422DD010F0070F42B3F6D162
:101B7000F0B441EA012141EA014122F007047FF07B
:101B800000070023F0E80256083C85EA010586EAD2
:101B9000010685FA47F5A3FA87F586FA47F6A5FA0E
:101BA00087F68EB9EED1F0BC01F0FF0102F007021A
:101BB00032B110F8013B013A83EA010313B1F8D1C5
:101BC0000020704701387047002D06BF35460338A6
:101BD000073815F0010F07D1013015F4807F02BFDF
:101BE000013015F4C03F0130F0BC0138704700BF30
:101BF00010B5431E0A44914200D110BD11F8014BAB
:101C000003F8014FF7E7884210B501EB020307D84C
:101C1000421E99420AD011F8014B02F8014FF8E731
:101C20008342F5D98118D21AD34200D110BD13F8DE
:101C3000014D01F8014DF7E738B50546002945D0BB
:101C400051F8043C0C1F002BB8BFE41800F0D2F888
:101C50001F4A1368104633B9636014602846BDE814
:101C6000384000F0C8B8A3420CD9216862189342EA
:101C700004BF1A685B68636004BF52182260046086
:101C8000ECE713465A680AB1A242FAD91968581803
:101C9000A0420BD120680144581882421960DDD15E
:101CA000106852685A6001441960D7E702D90C23C2
:101CB0002B60D3E7206821188A4204BF116852685C
:101CC000626004BF091821605C60C7E738BD00BFCF
:101CD0004401002070B5CD1C25F0030508350C2DFE
:101CE00038BF0C25002D064601DBA94203D90C2381
:101CF0003360002070BD00F07DF8214A1468214651
:101D000091B9204C23681BB9304600F063F820607D
:101D10002946304600F05EF8431C24D10C23336082
:101D2000304600F068F8E4E70B685B1B18D40B2B17
:101D30000FD90B60CD50CC18304600F05CF804F1A0
:101D40000B00231D20F00700C31AD3D05A42E250E3
:101D5000D0E78C424B6816BF636013600C46EBE71C
:101D60000C464968CCE7C41C24F00304A04205D00B
:101D7000211A304600F02EF80130CFD02560DBE785
:101D80004401002048010020F8B5074614460E46DD
:101D900021B91146BDE8F840FFF79CBF22B9FFF713
:101DA0004BFF25462846F8BD00F026F8A0420FD28A
:101DB00021463846FFF78EFF05460028F2D031460F
:101DC0002246FFF715FF31463846FFF735FFE9E7B2
:101DD0003546E7E738B5064C00230546084623603C
:101DE000FEF792FF431C02D1236803B12B6038BD7C
:101DF000500100207047704751F8043C181F002B19
:101E0000BCBF0B58C01870472E2E2F7379737465A2
:101E10006D2F7372632F73746D333266342D686166
:101E20006C2F73746D3332663478785F68616C5FE1
:101E3000636F727465782E6300000000000000007C
:101E40000102030401020304060708092E2E2F7362
:101E5000797374656D2F7372632F73746D3332668B
:101E6000342D68616C2F73746D3332663478785F0B
:101E700068616C5F7263632E6300000061626F7261
:101E80007428292C2065786974696E672E2E2E00BF
:101E90006173736572745F706172616D2829206669
:101EA00061696C65643A2066696C6520222573223D
:101EB0002C206C696E652025640A000053746163F0
:101EC0006B206672616D653A0A0000002052302076
:101ED0003D2020253038580A0000000020523120D3
:101EE0003D2020253038580A0000000020523220C2
:101EF0003D2020253038580A0000000020523320B1
:101F00003D2020253038580A000000002052313290
:101F1000203D20253038580A00000000204C522077
:101F20003D2020253038580A000000002050432072
:101F30003D2020253038580A000000002050535220
:101F4000203D20253038580A000000004653522F0B
:101F50004641523A0A0000002043465352203D2099
:101F600020253038580A00002048465352203D2092
:101F700020253038580A00002044465352203D2086
:101F800020253038580A00002041465352203D2079
:101F900020253038580A0000204D4D464152203D42
:101FA00020253038580A00002042464152203D206A
:101FB00020253038580A00004D6973630A0000007C
:101FC000204C522F4558435F52455455524E3D20A8
:101FD000253038580A0000005B486172644661751C
:101FE0006C745D0A000000005B4275734661756C9D
:101FF000745D0A005B55736167654661756C745D5D
:102000000A000000000000000000000001020304BC
:102010000607080900010203040506070001020380
:10202000040506071C2042404042201C232D302B73
:102030002000686C4C0065666745464700303132C9
:102040003334353637383941424344454600303120
:0F20500032333435363738396162636465660080
:102060007856341280000020000000000024F400A4
:10207000140000200000000000000000000000002C
:102080000000000000000000000000000000000050
:102090000000000000000000000000000000000040
:1020A0000000000000000000000000000000000030
:1020B0000000000000000000000000000000000020
:1020C0000000000000000000000000000000000010
:0820D000000000003254769874
:040000050800019559
:00000001FF
